{"contracts/Pact.sol":{"Pact":{"abi":[{"inputs":[],"name":"ReentrancyGuardReentrantCall","type":"error"},{"inputs":[{"internalType":"address","name":"token","type":"address"}],"name":"SafeERC20FailedOperation","type":"error"},{"anonymous":false,"inputs":[{"indexed":true,"internalType":"uint256","name":"pactId","type":"uint256"},{"indexed":true,"internalType":"address","name":"owner","type":"address"},{"indexed":false,"internalType":"uint256","name":"newScore","type":"uint256"}],"name":"CommitmentCompleted","type":"event"},{"anonymous":false,"inputs":[{"indexed":true,"internalType":"uint256","name":"pactId","type":"uint256"},{"indexed":false,"internalType":"address","name":"token","type":"address"},{"indexed":false,"internalType":"uint256","name":"amount","type":"uint256"}],"name":"DepositMade","type":"event"},{"anonymous":false,"inputs":[{"indexed":true,"internalType":"uint256","name":"pactId","type":"uint256"},{"indexed":true,"internalType":"address","name":"guardian","type":"address"}],"name":"GuardianApproved","type":"event"},{"anonymous":false,"inputs":[{"indexed":true,"internalType":"uint256","name":"pactId","type":"uint256"},{"indexed":true,"internalType":"address","name":"guardian","type":"address"}],"name":"GuardianAssigned","type":"event"},{"anonymous":false,"inputs":[{"indexed":true,"internalType":"uint256","name":"pactId","type":"uint256"}],"name":"PactBroken","type":"event"},{"anonymous":false,"inputs":[{"indexed":true,"internalType":"uint256","name":"pactId","type":"uint256"},{"indexed":true,"internalType":"address","name":"owner","type":"address"},{"indexed":false,"internalType":"address","name":"token","type":"address"},{"indexed":false,"internalType":"enum Pact.RuleType","name":"ruleType","type":"uint8"}],"name":"PactCreated","type":"event"},{"anonymous":false,"inputs":[{"indexed":true,"internalType":"uint256","name":"pactId","type":"uint256"},{"indexed":true,"internalType":"address","name":"to","type":"address"},{"indexed":false,"internalType":"uint256","name":"amount","type":"uint256"}],"name":"PactReleased","type":"event"},{"anonymous":false,"inputs":[{"indexed":true,"internalType":"uint256","name":"pactId","type":"uint256"},{"indexed":true,"internalType":"address","name":"guardian","type":"address"}],"name":"ReleaseApproved","type":"event"},{"anonymous":false,"inputs":[{"indexed":true,"internalType":"uint256","name":"pactId","type":"uint256"},{"indexed":true,"internalType":"address","name":"requester","type":"address"},{"indexed":false,"internalType":"uint256","name":"timestamp","type":"uint256"}],"name":"ReleaseRequested","type":"event"},{"inputs":[{"internalType":"uint256","name":"pactId","type":"uint256"}],"name":"approveRelease","outputs":[],"stateMutability":"nonpayable","type":"function"},{"inputs":[{"internalType":"uint256","name":"pactId","type":"uint256"},{"internalType":"address[]","name":"guardians","type":"address[]"}],"name":"assignGuardians","outputs":[],"stateMutability":"nonpayable","type":"function"},{"inputs":[{"internalType":"address","name":"user","type":"address"}],"name":"calculateCommitmentScore","outputs":[{"internalType":"uint256","name":"","type":"uint256"}],"stateMutability":"view","type":"function"},{"inputs":[{"internalType":"uint256","name":"pactId","type":"uint256"}],"name":"cancelPact","outputs":[],"stateMutability":"nonpayable","type":"function"},{"inputs":[{"internalType":"address","name":"","type":"address"}],"name":"commitmentScore","outputs":[{"internalType":"uint256","name":"","type":"uint256"}],"stateMutability":"view","type":"function"},{"inputs":[{"internalType":"address","name":"token","type":"address"},{"internalType":"enum Pact.RuleType","name":"ruleType","type":"uint8"},{"internalType":"bytes","name":"ruleParams","type":"bytes"},{"internalType":"string","name":"name","type":"string"},{"internalType":"string","name":"message","type":"string"},{"internalType":"uint8","name":"guardianThreshold","type":"uint8"}],"name":"createPact","outputs":[{"internalType":"uint256","name":"","type":"uint256"}],"stateMutability":"nonpayable","type":"function"},{"inputs":[{"internalType":"uint256","name":"pactId","type":"uint256"}],"name":"deposit","outputs":[],"stateMutability":"payable","type":"function"},{"inputs":[{"internalType":"uint256","name":"pactId","type":"uint256"},{"internalType":"uint256","name":"amount","type":"uint256"}],"name":"depositERC20","outputs":[],"stateMutability":"nonpayable","type":"function"},{"inputs":[{"internalType":"uint256","name":"pactId","type":"uint256"}],"name":"getGuardians","outputs":[{"internalType":"address[]","name":"","type":"address[]"}],"stateMutability":"view","type":"function"},{"inputs":[{"internalType":"uint256","name":"pactId","type":"uint256"}],"name":"getPact","outputs":[{"components":[{"internalType":"address","name":"owner","type":"address"},{"internalType":"address","name":"token","type":"address"},{"internalType":"uint256","name":"amount","type":"uint256"},{"internalType":"enum Pact.RuleType","name":"ruleType","type":"uint8"},{"internalType":"bytes","name":"ruleParams","type":"bytes"},{"internalType":"string","name":"name","type":"string"},{"internalType":"string","name":"message","type":"string"},{"internalType":"uint256","name":"createdAt","type":"uint256"},{"internalType":"uint256","name":"releaseRequestedAt","type":"uint256"},{"internalType":"uint8","name":"guardianThreshold","type":"uint8"},{"internalType":"uint8","name":"guardianApprovalCount","type":"uint8"},{"internalType":"enum Pact.PactStatus","name":"status","type":"uint8"}],"internalType":"struct Pact.PactData","name":"","type":"tuple"}],"stateMutability":"view","type":"function"},{"inputs":[{"internalType":"address","name":"user","type":"address"}],"name":"getUserPacts","outputs":[{"internalType":"uint256[]","name":"","type":"uint256[]"}],"stateMutability":"view","type":"function"},{"inputs":[{"internalType":"uint256","name":"pactId","type":"uint256"},{"internalType":"address","name":"guardian","type":"address"}],"name":"hasGuardianApproved","outputs":[{"internalType":"bool","name":"","type":"bool"}],"stateMutability":"view","type":"function"},{"inputs":[],"name":"pactCount","outputs":[{"internalType":"uint256","name":"","type":"uint256"}],"stateMutability":"view","type":"function"},{"inputs":[{"internalType":"uint256","name":"pactId","type":"uint256"}],"name":"release","outputs":[],"stateMutability":"nonpayable","type":"function"},{"inputs":[{"internalType":"uint256","name":"pactId","type":"uint256"}],"name":"requestRelease","outputs":[],"stateMutability":"nonpayable","type":"function"},{"inputs":[{"internalType":"uint256","name":"pactId","type":"uint256"},{"internalType":"address[]","name":"newGuardians","type":"address[]"}],"name":"updateGuardians","outputs":[],"stateMutability":"nonpayable","type":"function"},{"stateMutability":"payable","type":"receive"}],"evm":{"bytecode":{"linkReferences":{},"object":"608060405234801561001057600080fd5b5060017f9b779b17422d0df92223018b32b4d1fa46e071723d6817e2486d003becc55f0055613183806100446000396000f3fe6080604052600436106100f75760003560e01c8063a3a868271161008a578063c621321111610059578063c6213211146102d3578063f10fb3da146102f3578063f4a22bd014610309578063f56b561a1461032957600080fd5b8063a3a8682714610238578063b6b55f2514610258578063b7262dda1461026b578063c3dafbf0146102a657600080fd5b80633c7bc6b7116100c65780633c7bc6b71461019b578063411e17a1146101c8578063560df801146101e8578063a3a6569c1461021857600080fd5b8063063d36a4146101035780631bd2cea11461012557806335325a011461014557806337bdc99b1461017b57600080fd5b366100fe57005b600080fd5b34801561010f57600080fd5b5061012361011e366004612a28565b61035f565b005b34801561013157600080fd5b50610123610140366004612a28565b610518565b34801561015157600080fd5b50610165610160366004612a5d565b61077a565b6040516101729190612a7f565b60405180910390f35b34801561018757600080fd5b50610123610196366004612a28565b6107e6565b3480156101a757600080fd5b506101bb6101b6366004612a28565b610aea565b6040516101729190612b43565b3480156101d457600080fd5b506101236101e3366004612c55565b610de5565b3480156101f457600080fd5b50610208610203366004612c77565b6110ba565b6040519015158152602001610172565b34801561022457600080fd5b50610123610233366004612ca3565b6110e7565b34801561024457600080fd5b50610123610253366004612a28565b6114ff565b610123610266366004612a28565b611687565b34801561027757600080fd5b50610298610286366004612a5d565b60066020526000908152604090205481565b604051908152602001610172565b3480156102b257600080fd5b506102c66102c1366004612a28565b61183c565b6040516101729190612d22565b3480156102df57600080fd5b506101236102ee366004612ca3565b6118a7565b3480156102ff57600080fd5b5061029860005481565b34801561031557600080fd5b50610298610324366004612dbd565b611d2d565b34801561033557600080fd5b50610298610344366004612a5d565b6001600160a01b031660009081526006602052604090205490565b60008181526001602052604090205481906001600160a01b031633146103a05760405162461bcd60e51b815260040161039790612e8e565b60405180910390fd5b60008281526001602052604090205482906001600160a01b03166103d65760405162461bcd60e51b815260040161039790612eb7565b826000808281526001602052604090206009015462010000900460ff16600381111561040457610404612ac3565b146104215760405162461bcd60e51b815260040161039790612ee5565b600084815260016020526040902060028101546104805760405162461bcd60e51b815260206004820152601960248201527f506163743a206e6f2066756e647320746f2072656c65617365000000000000006044820152606401610397565b6008810154156104d25760405162461bcd60e51b815260206004820152601f60248201527f506163743a2072656c6561736520616c726561647920726571756573746564006044820152606401610397565b4260088201819055604051908152339086907f16b44c0833d5f73b7dface08d313b8c1ac7d35d88b8f15c5744386703b43b1d29060200160405180910390a35050505050565b60008181526001602052604090205481906001600160a01b031661054e5760405162461bcd60e51b815260040161039790612eb7565b816000808281526001602052604090206009015462010000900460ff16600381111561057c5761057c612ac3565b146105995760405162461bcd60e51b815260040161039790612ee5565b6000838152600160209081526040808320600383528184203385529092529091205460ff166106015760405162461bcd60e51b81526020600482015260146024820152732830b1ba1d103737ba10309033bab0b93234b0b760611b6044820152606401610397565b600084815260046020908152604080832033845290915290205460ff16156106645760405162461bcd60e51b8152602060048201526016602482015275141858dd0e88185b1c9958591e48185c1c1c9bdd995960521b6044820152606401610397565b60008160080154116106b85760405162461bcd60e51b815260206004820152601a60248201527f506163743a206e6f2072656c65617365207265717565737465640000000000006044820152606401610397565b60008481526004602090815260408083203384529091529020805460ff19166001908117909155600982018054610100900460ff16916106f783612f25565b91906101000a81548160ff021916908360ff16021790555050336001600160a01b0316847f79fabecec253afacf6f463953c9593ed9a5a910b601f3bfd30be8e404c45f1ab60405160405180910390a3604051339085907f492f404869834bbfb3dfd354d8ebd27ca988aa59eda4724d2e604400e1635df090600090a350505050565b6001600160a01b0381166000908152600560209081526040918290208054835181840281018401909452808452606093928301828280156107da57602002820191906000526020600020905b8154815260200190600101908083116107c6575b50505050509050919050565b6107ee61213a565b60008181526001602052604090205481906001600160a01b031633146108265760405162461bcd60e51b815260040161039790612e8e565b60008281526001602052604090205482906001600160a01b031661085c5760405162461bcd60e51b815260040161039790612eb7565b826000808281526001602052604090206009015462010000900460ff16600381111561088a5761088a612ac3565b146108a75760405162461bcd60e51b815260040161039790612ee5565b600084815260016020526040902060028101546109065760405162461bcd60e51b815260206004820152601860248201527f506163743a206e6f7468696e6720746f2072656c6561736500000000000000006044820152606401610397565b6109108582612156565b60028101805460009182905560098301805462ff000019166201000017905582546001600160a01b0316825260066020526040822080549192600a92610957908490612f44565b909155505081546001600160a01b031660008181526006602090815260409182902054915182815291929189917f33f3ba6ea8021e86f3d13b1094665a06a7ece080a19c828f7edfc3c990f9a771910160405180910390a360018301546001600160a01b0316610a695782546040516000916001600160a01b03169084908381818185875af1925050503d8060008114610a0d576040519150601f19603f3d011682016040523d82523d6000602084013e610a12565b606091505b5050905080610a635760405162461bcd60e51b815260206004820152601960248201527f506163743a20455448207472616e73666572206661696c6564000000000000006044820152606401610397565b50610a87565b82546001840154610a87916001600160a01b03918216911684612617565b82546040518381526001600160a01b039091169088907fc9cc3ce9bddeb89b25b90a7c9b4ab2f8fc04ecdc5f2ff011d69aa3a7d2a5e6499060200160405180910390a3505050505050610ae7600160008051602061312e83398151915255565b50565b610b4e604080516101808101825260008082526020820181905291810182905260608082018390526080820181905260a0820181905260c082015260e081018290526101008101829052610120810182905261014081018290529061016082015290565b60008281526001602081815260409283902083516101808101855281546001600160a01b03908116825293820154909316918301919091526002810154928201929092526003820154909190606083019060ff166004811115610bb357610bb3612ac3565b6004811115610bc457610bc4612ac3565b8152602001600482018054610bd890612f57565b80601f0160208091040260200160405190810160405280929190818152602001828054610c0490612f57565b8015610c515780601f10610c2657610100808354040283529160200191610c51565b820191906000526020600020905b815481529060010190602001808311610c3457829003601f168201915b50505050508152602001600582018054610c6a90612f57565b80601f0160208091040260200160405190810160405280929190818152602001828054610c9690612f57565b8015610ce35780601f10610cb857610100808354040283529160200191610ce3565b820191906000526020600020905b815481529060010190602001808311610cc657829003601f168201915b50505050508152602001600682018054610cfc90612f57565b80601f0160208091040260200160405190810160405280929190818152602001828054610d2890612f57565b8015610d755780601f10610d4a57610100808354040283529160200191610d75565b820191906000526020600020905b815481529060010190602001808311610d5857829003601f168201915b50505091835250506007820154602082015260088201546040820152600982015460ff808216606084015261010082048116608084015260a09092019162010000909104166003811115610dcb57610dcb612ac3565b6003811115610ddc57610ddc612ac3565b90525092915050565b610ded61213a565b60008281526001602052604090205482906001600160a01b0316610e235760405162461bcd60e51b815260040161039790612eb7565b826000808281526001602052604090206009015462010000900460ff166003811115610e5157610e51612ac3565b14610e6e5760405162461bcd60e51b815260040161039790612ee5565b6000848152600160208190526040909120908101546001600160a01b0316610ee35760405162461bcd60e51b815260206004820152602260248201527f506163743a20757365206465706f73697420666f72206e617469766520746f6b60448201526132b760f11b6064820152608401610397565b60008411610f2c5760405162461bcd60e51b81526020600482015260166024820152750506163743a206d757374206465706f736974203e20360541b6044820152606401610397565b60018101546040516370a0823160e01b81523060048201526000916001600160a01b0316906370a0823190602401602060405180830381865afa158015610f77573d6000803e3d6000fd5b505050506040513d601f19601f82011682018060405250810190610f9b9190612f91565b6001830154909150610fb8906001600160a01b031633308861264c565b60018201546040516370a0823160e01b815230600482015260009183916001600160a01b03909116906370a0823190602401602060405180830381865afa158015611007573d6000803e3d6000fd5b505050506040513d601f19601f8201168201806040525081019061102b9190612f91565b6110359190612faa565b90508083600201600082825461104b9190612f44565b90915550506001830154604080516001600160a01b0390921682526020820183905288917f377ef0adce1eae318afaad309c3b0f6c378fa1a294064deccda8d15ad28858eb910160405180910390a250505050506110b6600160008051602061312e83398151915255565b5050565b60008281526004602090815260408083206001600160a01b038516845290915290205460ff165b92915050565b60008381526001602052604090205483906001600160a01b0316331461111f5760405162461bcd60e51b815260040161039790612e8e565b60008481526001602052604090205484906001600160a01b03166111555760405162461bcd60e51b815260040161039790612eb7565b846000808281526001602052604090206009015462010000900460ff16600381111561118357611183612ac3565b146111a05760405162461bcd60e51b815260040161039790612ee5565b83158015906111b0575060058411155b6111f75760405162461bcd60e51b8152602060048201526018602482015277506163743a20312d3520677561726469616e73206f6e6c7960401b6044820152606401610397565b6000868152600260205260408120905b81548110156112d25760008881526003602052604081208354829085908590811061123457611234612fbd565b6000918252602080832091909101546001600160a01b031683528281019390935260409182018120805460ff1916941515949094179093558a8352600490915281208354829085908590811061128c5761128c612fbd565b6000918252602080832091909101546001600160a01b031683528201929092526040019020805460ff1916911515919091179055806112ca81612fd3565b915050611207565b5060008781526002602052604081206112ea916129f6565b600087815260016020526040812060098101805461ff001916905560088101829055905b868110156114f457600088888381811061132a5761132a612fbd565b905060200201602081019061133f9190612a5d565b90506001600160a01b0381166113975760405162461bcd60e51b815260206004820152601b60248201527f506163743a207a65726f206164647265737320677561726469616e00000000006044820152606401610397565b336001600160a01b038216036113ef5760405162461bcd60e51b815260206004820152601e60248201527f506163743a206f776e65722063616e6e6f7420626520677561726469616e00006044820152606401610397565b60008a81526003602090815260408083206001600160a01b038516845290915290205460ff161561145d5760405162461bcd60e51b81526020600482015260186024820152772830b1ba1d10323ab83634b1b0ba329033bab0b93234b0b760411b6044820152606401610397565b60008a81526002602090815260408083208054600180820183559185528385200180546001600160a01b0319166001600160a01b0387169081179091558e855260038452828520818652909352818420805460ff191690911790555190918c917fed3a6cdbd975fd0c899136bf181b3ecbbbe340872bb479f15d138084eb5d24979190a350806114ec81612fd3565b91505061130e565b505050505050505050565b61150761213a565b60008181526001602052604090205481906001600160a01b0316331461153f5760405162461bcd60e51b815260040161039790612e8e565b60008281526001602052604090205482906001600160a01b03166115755760405162461bcd60e51b815260040161039790612eb7565b826000808281526001602052604090206009015462010000900460ff1660038111156115a3576115a3612ac3565b146115c05760405162461bcd60e51b815260040161039790612ee5565b600084815260016020526040902060028101541561162e5760405162461bcd60e51b815260206004820152602560248201527f506163743a2063616e6e6f742063616e63656c2077697468206c6f636b65642060448201526466756e647360d81b6064820152608401610397565b60098101805462ff000019166203000017905560405185907f28dba6080c86284cd7e9959e1aab570b8874c34b7dc51db0d8e4e7418090995190600090a250505050610ae7600160008051602061312e83398151915255565b61168f61213a565b60008181526001602052604090205481906001600160a01b03166116c55760405162461bcd60e51b815260040161039790612eb7565b816000808281526001602052604090206009015462010000900460ff1660038111156116f3576116f3612ac3565b146117105760405162461bcd60e51b815260040161039790612ee5565b6000838152600160208190526040909120908101546001600160a01b0316156117855760405162461bcd60e51b815260206004820152602160248201527f506163743a20757365206465706f736974455243323020666f7220746f6b656e6044820152607360f81b6064820152608401610397565b600034116117ce5760405162461bcd60e51b81526020600482015260166024820152750506163743a206d757374206465706f736974203e20360541b6044820152606401610397565b348160020160008282546117e29190612f44565b9091555050604080516000815234602082015285917f377ef0adce1eae318afaad309c3b0f6c378fa1a294064deccda8d15ad28858eb910160405180910390a2505050610ae7600160008051602061312e83398151915255565b6000818152600260209081526040918290208054835181840281018401909452808452606093928301828280156107da57602002820191906000526020600020905b81546001600160a01b0316815260019091019060200180831161187e5750505050509050919050565b60008381526001602052604090205483906001600160a01b031633146118df5760405162461bcd60e51b815260040161039790612e8e565b60008481526001602052604090205484906001600160a01b03166119155760405162461bcd60e51b815260040161039790612eb7565b846000808281526001602052604090206009015462010000900460ff16600381111561194357611943612ac3565b146119605760405162461bcd60e51b815260040161039790612ee5565b60008681526001602052604090206002600382015460ff16600481111561198957611989612ac3565b14806119ac575060038082015460ff1660048111156119aa576119aa612ac3565b145b611a025760405162461bcd60e51b815260206004820152602160248201527f506163743a2072756c6520646f6573206e6f742075736520677561726469616e6044820152607360f81b6064820152608401610397565b8415801590611a12575060058511155b611a595760405162461bcd60e51b8152602060048201526018602482015277506163743a20312d3520677561726469616e73206f6e6c7960401b6044820152606401610397565b600981015460ff1615801590611a795750600981015460ff808716911611155b611ac55760405162461bcd60e51b815260206004820152601760248201527f506163743a20696e76616c6964207468726573686f6c640000000000000000006044820152606401610397565b60008781526002602052604090205415611b3a5760405162461bcd60e51b815260206004820152603060248201527f506163743a20677561726469616e7320616c7265616479207365743b2075736560448201526f20757064617465477561726469616e7360801b6064820152608401610397565b60005b85811015611d23576000878783818110611b5957611b59612fbd565b9050602002016020810190611b6e9190612a5d565b90506001600160a01b038116611bc65760405162461bcd60e51b815260206004820152601b60248201527f506163743a207a65726f206164647265737320677561726469616e00000000006044820152606401610397565b336001600160a01b03821603611c1e5760405162461bcd60e51b815260206004820152601e60248201527f506163743a206f776e65722063616e6e6f7420626520677561726469616e00006044820152606401610397565b60008981526003602090815260408083206001600160a01b038516845290915290205460ff1615611c8c5760405162461bcd60e51b81526020600482015260186024820152772830b1ba1d10323ab83634b1b0ba329033bab0b93234b0b760411b6044820152606401610397565b60008981526002602090815260408083208054600180820183559185528385200180546001600160a01b0319166001600160a01b0387169081179091558d855260038452828520818652909352818420805460ff191690911790555190918b917fed3a6cdbd975fd0c899136bf181b3ecbbbe340872bb479f15d138084eb5d24979190a35080611d1b81612fd3565b915050611b3d565b5050505050505050565b60008415801590611d3f575060408511155b611d8b5760405162461bcd60e51b815260206004820152601960248201527f506163743a20696e76616c6964206e616d65206c656e677468000000000000006044820152606401610397565b610400831115611dd65760405162461bcd60e51b8152602060048201526016602482015275506163743a206d65737361676520746f6f206c6f6e6760501b6044820152606401610397565b611de1898989612682565b60ff821615611e77576002896004811115611dfe57611dfe612ac3565b1480611e1b57506003896004811115611e1957611e19612ac3565b145b611e775760405162461bcd60e51b815260206004820152602760248201527f506163743a207468726573686f6c64206f6e6c7920666f7220677561726469616044820152666e2072756c657360c81b6064820152608401610397565b600080549080611e8683612fd3565b9190505550600080549050604051806101800160405280336001600160a01b031681526020018c6001600160a01b03168152602001600081526020018b6004811115611ed457611ed4612ac3565b81526020018a8a8080601f016020809104026020016040519081016040528093929190818152602001838380828437600092019190915250505090825250604080516020601f8b0181900481028201810190925289815291810191908a908a9081908401838280828437600092019190915250505090825250604080516020601f89018190048102820181019092528781529181019190889088908190840183828082843760009201829052509385525050426020840152506040820181905260ff861660608301526080820181905260a090910152600082815260016020818152604092839020845181546001600160a01b03199081166001600160a01b0392831617835592860151828501805490941691161790915591830151600283015560608301516003830180549192909160ff19169083600481111561201b5761201b612ac3565b0217905550608082015160048201906120349082613050565b5060a082015160058201906120499082613050565b5060c0820151600682019061205e9082613050565b5060e0820151600782015561010080830151600883015561012083015160098301805461014086015160ff93841661ffff1990921691909117921690920217808255610160840151919062ff00001916620100008360038111156120c4576120c4612ac3565b021790555050336000818152600560209081526040808320805460018101825590845291909220018490555190915082907fdb25ec6fd08bbbb6a5d9f1575668949dfb50b3ff60d43bd5cfcca7fa9722a02c90612124908f908f90613110565b60405180910390a39a9950505050505050505050565b6121426128ec565b600260008051602061312e83398151915255565b600381015460ff16600081600481111561217257612172612ac3565b0361227157600082600401805461218890612f57565b80601f01602080910402602001604051908101604052809291908181526020018280546121b490612f57565b80156122015780601f106121d657610100808354040283529160200191612201565b820191906000526020600020905b8154815290600101906020018083116121e457829003601f168201915b50505050508060200190518101906122199190612f91565b90508042101561226b5760405162461bcd60e51b815260206004820152601b60248201527f506163743a2074696d65206c6f636b206e6f74206578706972656400000000006044820152606401610397565b50505050565b600181600481111561228557612285612ac3565b036123f85760008260080154116122ea5760405162461bcd60e51b8152602060048201526024808201527f506163743a206d7573742063616c6c207265717565737452656c6561736520666044820152631a5c9cdd60e21b6064820152608401610397565b60008260040180546122fb90612f57565b80601f016020809104026020016040519081016040528092919081815260200182805461232790612f57565b80156123745780601f1061234957610100808354040283529160200191612374565b820191906000526020600020905b81548152906001019060200180831161235757829003601f168201915b505050505080602001905181019061238c9190612f91565b905080836008015461239e9190612f44565b42101561226b5760405162461bcd60e51b815260206004820152602260248201527f506163743a20636f6f6c646f776e20706572696f64206e6f7420636f6d706c65604482015261746560f01b6064820152608401610397565b600281600481111561240c5761240c612ac3565b14806124295750600381600481111561242757612427612ac3565b145b156124fb576000838152600260205260409020546124895760405162461bcd60e51b815260206004820152601b60248201527f506163743a206e6f20677561726469616e732061737369676e656400000000006044820152606401610397565b600982015460ff8082166101009092041610156124f65760405162461bcd60e51b815260206004820152602560248201527f506163743a20696e73756666696369656e7420677561726469616e20617070726044820152646f76616c7360d81b6064820152608401610397565b505050565b600481600481111561250f5761250f612ac3565b036124f657600082600401805461252590612f57565b80601f016020809104026020016040519081016040528092919081815260200182805461255190612f57565b801561259e5780601f106125735761010080835404028352916020019161259e565b820191906000526020600020905b81548152906001019060200180831161258157829003601f168201915b50505050508060200190518101906125b69190612f91565b9050808360020154101561226b5760405162461bcd60e51b815260206004820152602260248201527f506163743a20736176696e677320676f616c206e6f7420796574207265616368604482015261195960f21b6064820152608401610397565b612624838383600161291e565b6124f657604051635274afe760e01b81526001600160a01b0384166004820152602401610397565b61265a848484846001612984565b61226b57604051635274afe760e01b81526001600160a01b0385166004820152602401610397565b600083600481111561269657612696612ac3565b0361274a57602081146126eb5760405162461bcd60e51b815260206004820152601d60248201527f506163743a20696e76616c69642054696d654c6f636b20706172616d730000006044820152606401610397565b60006126f982840184612a28565b905042811161226b5760405162461bcd60e51b815260206004820181905260248201527f506163743a20756e6c6f636b2074696d65206d757374206265206675747572656044820152606401610397565b600183600481111561275e5761275e612ac3565b0361282357602081146127b35760405162461bcd60e51b815260206004820152601d60248201527f506163743a20696e76616c696420436f6f6c646f776e20706172616d730000006044820152606401610397565b60006127c182840184612a28565b90506000811180156127d757506301e133808111155b61226b5760405162461bcd60e51b815260206004820152601b60248201527f506163743a20636f6f6c646f776e206f7574206f662072616e676500000000006044820152606401610397565b600483600481111561283757612837612ac3565b036124f6576020811461288c5760405162461bcd60e51b815260206004820181905260248201527f506163743a20696e76616c696420536176696e6773476f616c20706172616d736044820152606401610397565b600061289a82840184612a28565b90506000811161226b5760405162461bcd60e51b815260206004820152601e60248201527f506163743a20736176696e677320676f616c206d757374206265203e203000006044820152606401610397565b60008051602061312e8339815191525460020361291c57604051633ee5aeb560e01b815260040160405180910390fd5b565b60405163a9059cbb60e01b60008181526001600160a01b038616600452602485905291602083604481808b5af19250600160005114831661297857838315161561296b573d6000823e3d81fd5b6000873b113d1516831692505b60405250949350505050565b6040516323b872dd60e01b60008181526001600160a01b038781166004528616602452604485905291602083606481808c5af1925060016000511483166129e45783831516156129d7573d6000823e3d81fd5b6000883b113d1516831692505b60405250600060605295945050505050565b5080546000825590600052602060002090810190610ae791905b80821115612a245760008155600101612a10565b5090565b600060208284031215612a3a57600080fd5b5035919050565b80356001600160a01b0381168114612a5857600080fd5b919050565b600060208284031215612a6f57600080fd5b612a7882612a41565b9392505050565b6020808252825182820181905260009190848201906040850190845b81811015612ab757835183529284019291840191600101612a9b565b50909695505050505050565b634e487b7160e01b600052602160045260246000fd5b60058110612ae957612ae9612ac3565b9052565b6000815180845260005b81811015612b1357602081850181015186830182015201612af7565b506000602082860101526020601f19601f83011685010191505092915050565b60048110612ae957612ae9612ac3565b60208152612b5d6020820183516001600160a01b03169052565b60006020830151612b7960408401826001600160a01b03169052565b50604083015160608301526060830151612b966080840182612ad9565b5060808301516101808060a0850152612bb36101a0850183612aed565b915060a0850151601f19808685030160c0870152612bd18483612aed565b935060c08701519150808685030160e087015250612bef8382612aed565b60e087015161010087810191909152870151610120808801919091528701519093509050610140612c248187018360ff169052565b8601519050610160612c3a8682018360ff169052565b8601519050612c4b85830182612b33565b5090949350505050565b60008060408385031215612c6857600080fd5b50508035926020909101359150565b60008060408385031215612c8a57600080fd5b82359150612c9a60208401612a41565b90509250929050565b600080600060408486031215612cb857600080fd5b83359250602084013567ffffffffffffffff80821115612cd757600080fd5b818601915086601f830112612ceb57600080fd5b813581811115612cfa57600080fd5b8760208260051b8501011115612d0f57600080fd5b6020830194508093505050509250925092565b6020808252825182820181905260009190848201906040850190845b81811015612ab75783516001600160a01b031683529284019291840191600101612d3e565b60008083601f840112612d7557600080fd5b50813567ffffffffffffffff811115612d8d57600080fd5b602083019150836020828501011115612da557600080fd5b9250929050565b803560ff81168114612a5857600080fd5b600080600080600080600080600060c08a8c031215612ddb57600080fd5b612de48a612a41565b985060208a013560058110612df857600080fd5b975060408a013567ffffffffffffffff80821115612e1557600080fd5b612e218d838e01612d63565b909950975060608c0135915080821115612e3a57600080fd5b612e468d838e01612d63565b909750955060808c0135915080821115612e5f57600080fd5b50612e6c8c828d01612d63565b9094509250612e7f905060a08b01612dac565b90509295985092959850929598565b6020808252600f908201526e2830b1ba1d103737ba1037bbb732b960891b604082015260600190565b602080825260149082015273141858dd0e88191bd95cc81b9bdd08195e1a5cdd60621b604082015260600190565b60208082526010908201526f506163743a206e6f742061637469766560801b604082015260600190565b634e487b7160e01b600052601160045260246000fd5b600060ff821660ff8103612f3b57612f3b612f0f565b60010192915050565b808201808211156110e1576110e1612f0f565b600181811c90821680612f6b57607f821691505b602082108103612f8b57634e487b7160e01b600052602260045260246000fd5b50919050565b600060208284031215612fa357600080fd5b5051919050565b818103818111156110e1576110e1612f0f565b634e487b7160e01b600052603260045260246000fd5b600060018201612fe557612fe5612f0f565b5060010190565b634e487b7160e01b600052604160045260246000fd5b601f8211156124f657600081815260208120601f850160051c810160208610156130295750805b601f850160051c820191505b8181101561304857828155600101613035565b505050505050565b815167ffffffffffffffff81111561306a5761306a612fec565b61307e816130788454612f57565b84613002565b602080601f8311600181146130b3576000841561309b5750858301515b600019600386901b1c1916600185901b178555613048565b600085815260208120601f198616915b828110156130e2578886015182559484019460019091019084016130c3565b50858210156131005787850151600019600388901b60f8161c191681555b5050505050600190811b01905550565b6001600160a01b038316815260408101612a786020830184612ad956fe9b779b17422d0df92223018b32b4d1fa46e071723d6817e2486d003becc55f00a2646970667358221220d05614dc68441c348cc067c7680d43e03c47e1c3588a9589aef3176e427c371864736f6c63430008140033","opcodes":"PUSH1 0x80 PUSH1 0x40 MSTORE CALLVALUE DUP1 ISZERO PUSH2 0x10 JUMPI PUSH1 0x0 DUP1 REVERT JUMPDEST POP PUSH1 0x1 PUSH32 0x9B779B17422D0DF92223018B32B4D1FA46E071723D6817E2486D003BECC55F00 SSTORE PUSH2 0x3183 DUP1 PUSH2 0x44 PUSH1 0x0 CODECOPY PUSH1 0x0 RETURN INVALID PUSH1 0x80 PUSH1 0x40 MSTORE PUSH1 0x4 CALLDATASIZE LT PUSH2 0xF7 JUMPI PUSH1 0x0 CALLDATALOAD PUSH1 0xE0 SHR DUP1 PUSH4 0xA3A86827 GT PUSH2 0x8A JUMPI DUP1 PUSH4 0xC6213211 GT PUSH2 0x59 JUMPI DUP1 PUSH4 0xC6213211 EQ PUSH2 0x2D3 JUMPI DUP1 PUSH4 0xF10FB3DA EQ PUSH2 0x2F3 JUMPI DUP1 PUSH4 0xF4A22BD0 EQ PUSH2 0x309 JUMPI DUP1 PUSH4 0xF56B561A EQ PUSH2 0x329 JUMPI PUSH1 0x0 DUP1 REVERT JUMPDEST DUP1 PUSH4 0xA3A86827 EQ PUSH2 0x238 JUMPI DUP1 PUSH4 0xB6B55F25 EQ PUSH2 0x258 JUMPI DUP1 PUSH4 0xB7262DDA EQ PUSH2 0x26B JUMPI DUP1 PUSH4 0xC3DAFBF0 EQ PUSH2 0x2A6 JUMPI PUSH1 0x0 DUP1 REVERT JUMPDEST DUP1 PUSH4 0x3C7BC6B7 GT PUSH2 0xC6 JUMPI DUP1 PUSH4 0x3C7BC6B7 EQ PUSH2 0x19B JUMPI DUP1 PUSH4 0x411E17A1 EQ PUSH2 0x1C8 JUMPI DUP1 PUSH4 0x560DF801 EQ PUSH2 0x1E8 JUMPI DUP1 PUSH4 0xA3A6569C EQ PUSH2 0x218 JUMPI PUSH1 0x0 DUP1 REVERT JUMPDEST DUP1 PUSH4 0x63D36A4 EQ PUSH2 0x103 JUMPI DUP1 PUSH4 0x1BD2CEA1 EQ PUSH2 0x125 JUMPI DUP1 PUSH4 0x35325A01 EQ PUSH2 0x145 JUMPI DUP1 PUSH4 0x37BDC99B EQ PUSH2 0x17B JUMPI PUSH1 0x0 DUP1 REVERT JUMPDEST CALLDATASIZE PUSH2 0xFE JUMPI STOP JUMPDEST PUSH1 0x0 DUP1 REVERT JUMPDEST CALLVALUE DUP1 ISZERO PUSH2 0x10F JUMPI PUSH1 0x0 DUP1 REVERT JUMPDEST POP PUSH2 0x123 PUSH2 0x11E CALLDATASIZE PUSH1 0x4 PUSH2 0x2A28 JUMP JUMPDEST PUSH2 0x35F JUMP JUMPDEST STOP JUMPDEST CALLVALUE DUP1 ISZERO PUSH2 0x131 JUMPI PUSH1 0x0 DUP1 REVERT JUMPDEST POP PUSH2 0x123 PUSH2 0x140 CALLDATASIZE PUSH1 0x4 PUSH2 0x2A28 JUMP JUMPDEST PUSH2 0x518 JUMP JUMPDEST CALLVALUE DUP1 ISZERO PUSH2 0x151 JUMPI PUSH1 0x0 DUP1 REVERT JUMPDEST POP PUSH2 0x165 PUSH2 0x160 CALLDATASIZE PUSH1 0x4 PUSH2 0x2A5D JUMP JUMPDEST PUSH2 0x77A JUMP JUMPDEST PUSH1 0x40 MLOAD PUSH2 0x172 SWAP2 SWAP1 PUSH2 0x2A7F JUMP JUMPDEST PUSH1 0x40 MLOAD DUP1 SWAP2 SUB SWAP1 RETURN JUMPDEST CALLVALUE DUP1 ISZERO PUSH2 0x187 JUMPI PUSH1 0x0 DUP1 REVERT JUMPDEST POP PUSH2 0x123 PUSH2 0x196 CALLDATASIZE PUSH1 0x4 PUSH2 0x2A28 JUMP JUMPDEST PUSH2 0x7E6 JUMP JUMPDEST CALLVALUE DUP1 ISZERO PUSH2 0x1A7 JUMPI PUSH1 0x0 DUP1 REVERT JUMPDEST POP PUSH2 0x1BB PUSH2 0x1B6 CALLDATASIZE PUSH1 0x4 PUSH2 0x2A28 JUMP JUMPDEST PUSH2 0xAEA JUMP JUMPDEST PUSH1 0x40 MLOAD PUSH2 0x172 SWAP2 SWAP1 PUSH2 0x2B43 JUMP JUMPDEST CALLVALUE DUP1 ISZERO PUSH2 0x1D4 JUMPI PUSH1 0x0 DUP1 REVERT JUMPDEST POP PUSH2 0x123 PUSH2 0x1E3 CALLDATASIZE PUSH1 0x4 PUSH2 0x2C55 JUMP JUMPDEST PUSH2 0xDE5 JUMP JUMPDEST CALLVALUE DUP1 ISZERO PUSH2 0x1F4 JUMPI PUSH1 0x0 DUP1 REVERT JUMPDEST POP PUSH2 0x208 PUSH2 0x203 CALLDATASIZE PUSH1 0x4 PUSH2 0x2C77 JUMP JUMPDEST PUSH2 0x10BA JUMP JUMPDEST PUSH1 0x40 MLOAD SWAP1 ISZERO ISZERO DUP2 MSTORE PUSH1 0x20 ADD PUSH2 0x172 JUMP JUMPDEST CALLVALUE DUP1 ISZERO PUSH2 0x224 JUMPI PUSH1 0x0 DUP1 REVERT JUMPDEST POP PUSH2 0x123 PUSH2 0x233 CALLDATASIZE PUSH1 0x4 PUSH2 0x2CA3 JUMP JUMPDEST PUSH2 0x10E7 JUMP JUMPDEST CALLVALUE DUP1 ISZERO PUSH2 0x244 JUMPI PUSH1 0x0 DUP1 REVERT JUMPDEST POP PUSH2 0x123 PUSH2 0x253 CALLDATASIZE PUSH1 0x4 PUSH2 0x2A28 JUMP JUMPDEST PUSH2 0x14FF JUMP JUMPDEST PUSH2 0x123 PUSH2 0x266 CALLDATASIZE PUSH1 0x4 PUSH2 0x2A28 JUMP JUMPDEST PUSH2 0x1687 JUMP JUMPDEST CALLVALUE DUP1 ISZERO PUSH2 0x277 JUMPI PUSH1 0x0 DUP1 REVERT JUMPDEST POP PUSH2 0x298 PUSH2 0x286 CALLDATASIZE PUSH1 0x4 PUSH2 0x2A5D JUMP JUMPDEST PUSH1 0x6 PUSH1 0x20 MSTORE PUSH1 0x0 SWAP1 DUP2 MSTORE PUSH1 0x40 SWAP1 KECCAK256 SLOAD DUP2 JUMP JUMPDEST PUSH1 0x40 MLOAD SWAP1 DUP2 MSTORE PUSH1 0x20 ADD PUSH2 0x172 JUMP JUMPDEST CALLVALUE DUP1 ISZERO PUSH2 0x2B2 JUMPI PUSH1 0x0 DUP1 REVERT JUMPDEST POP PUSH2 0x2C6 PUSH2 0x2C1 CALLDATASIZE PUSH1 0x4 PUSH2 0x2A28 JUMP JUMPDEST PUSH2 0x183C JUMP JUMPDEST PUSH1 0x40 MLOAD PUSH2 0x172 SWAP2 SWAP1 PUSH2 0x2D22 JUMP JUMPDEST CALLVALUE DUP1 ISZERO PUSH2 0x2DF JUMPI PUSH1 0x0 DUP1 REVERT JUMPDEST POP PUSH2 0x123 PUSH2 0x2EE CALLDATASIZE PUSH1 0x4 PUSH2 0x2CA3 JUMP JUMPDEST PUSH2 0x18A7 JUMP JUMPDEST CALLVALUE DUP1 ISZERO PUSH2 0x2FF JUMPI PUSH1 0x0 DUP1 REVERT JUMPDEST POP PUSH2 0x298 PUSH1 0x0 SLOAD DUP2 JUMP JUMPDEST CALLVALUE DUP1 ISZERO PUSH2 0x315 JUMPI PUSH1 0x0 DUP1 REVERT JUMPDEST POP PUSH2 0x298 PUSH2 0x324 CALLDATASIZE PUSH1 0x4 PUSH2 0x2DBD JUMP JUMPDEST PUSH2 0x1D2D JUMP JUMPDEST CALLVALUE DUP1 ISZERO PUSH2 0x335 JUMPI PUSH1 0x0 DUP1 REVERT JUMPDEST POP PUSH2 0x298 PUSH2 0x344 CALLDATASIZE PUSH1 0x4 PUSH2 0x2A5D JUMP JUMPDEST PUSH1 0x1 PUSH1 0x1 PUSH1 0xA0 SHL SUB AND PUSH1 0x0 SWAP1 DUP2 MSTORE PUSH1 0x6 PUSH1 0x20 MSTORE PUSH1 0x40 SWAP1 KECCAK256 SLOAD SWAP1 JUMP JUMPDEST PUSH1 0x0 DUP2 DUP2 MSTORE PUSH1 0x1 PUSH1 0x20 MSTORE PUSH1 0x40 SWAP1 KECCAK256 SLOAD DUP2 SWAP1 PUSH1 0x1 PUSH1 0x1 PUSH1 0xA0 SHL SUB AND CALLER EQ PUSH2 0x3A0 JUMPI PUSH1 0x40 MLOAD PUSH3 0x461BCD PUSH1 0xE5 SHL DUP2 MSTORE PUSH1 0x4 ADD PUSH2 0x397 SWAP1 PUSH2 0x2E8E JUMP JUMPDEST PUSH1 0x40 MLOAD DUP1 SWAP2 SUB SWAP1 REVERT JUMPDEST PUSH1 0x0 DUP3 DUP2 MSTORE PUSH1 0x1 PUSH1 0x20 MSTORE PUSH1 0x40 SWAP1 KECCAK256 SLOAD DUP3 SWAP1 PUSH1 0x1 PUSH1 0x1 PUSH1 0xA0 SHL SUB AND PUSH2 0x3D6 JUMPI PUSH1 0x40 MLOAD PUSH3 0x461BCD PUSH1 0xE5 SHL DUP2 MSTORE PUSH1 0x4 ADD PUSH2 0x397 SWAP1 PUSH2 0x2EB7 JUMP JUMPDEST DUP3 PUSH1 0x0 DUP1 DUP3 DUP2 MSTORE PUSH1 0x1 PUSH1 0x20 MSTORE PUSH1 0x40 SWAP1 KECCAK256 PUSH1 0x9 ADD SLOAD PUSH3 0x10000 SWAP1 DIV PUSH1 0xFF AND PUSH1 0x3 DUP2 GT ISZERO PUSH2 0x404 JUMPI PUSH2 0x404 PUSH2 0x2AC3 JUMP JUMPDEST EQ PUSH2 0x421 JUMPI PUSH1 0x40 MLOAD PUSH3 0x461BCD PUSH1 0xE5 SHL DUP2 MSTORE PUSH1 0x4 ADD PUSH2 0x397 SWAP1 PUSH2 0x2EE5 JUMP JUMPDEST PUSH1 0x0 DUP5 DUP2 MSTORE PUSH1 0x1 PUSH1 0x20 MSTORE PUSH1 0x40 SWAP1 KECCAK256 PUSH1 0x2 DUP2 ADD SLOAD PUSH2 0x480 JUMPI PUSH1 0x40 MLOAD PUSH3 0x461BCD PUSH1 0xE5 SHL DUP2 MSTORE PUSH1 0x20 PUSH1 0x4 DUP3 ADD MSTORE PUSH1 0x19 PUSH1 0x24 DUP3 ADD MSTORE PUSH32 0x506163743A206E6F2066756E647320746F2072656C6561736500000000000000 PUSH1 0x44 DUP3 ADD MSTORE PUSH1 0x64 ADD PUSH2 0x397 JUMP JUMPDEST PUSH1 0x8 DUP2 ADD SLOAD ISZERO PUSH2 0x4D2 JUMPI PUSH1 0x40 MLOAD PUSH3 0x461BCD PUSH1 0xE5 SHL DUP2 MSTORE PUSH1 0x20 PUSH1 0x4 DUP3 ADD MSTORE PUSH1 0x1F PUSH1 0x24 DUP3 ADD MSTORE PUSH32 0x506163743A2072656C6561736520616C72656164792072657175657374656400 PUSH1 0x44 DUP3 ADD MSTORE PUSH1 0x64 ADD PUSH2 0x397 JUMP JUMPDEST TIMESTAMP PUSH1 0x8 DUP3 ADD DUP2 SWAP1 SSTORE PUSH1 0x40 MLOAD SWAP1 DUP2 MSTORE CALLER SWAP1 DUP7 SWAP1 PUSH32 0x16B44C0833D5F73B7DFACE08D313B8C1AC7D35D88B8F15C5744386703B43B1D2 SWAP1 PUSH1 0x20 ADD PUSH1 0x40 MLOAD DUP1 SWAP2 SUB SWAP1 LOG3 POP POP POP POP POP JUMP JUMPDEST PUSH1 0x0 DUP2 DUP2 MSTORE PUSH1 0x1 PUSH1 0x20 MSTORE PUSH1 0x40 SWAP1 KECCAK256 SLOAD DUP2 SWAP1 PUSH1 0x1 PUSH1 0x1 PUSH1 0xA0 SHL SUB AND PUSH2 0x54E JUMPI PUSH1 0x40 MLOAD PUSH3 0x461BCD PUSH1 0xE5 SHL DUP2 MSTORE PUSH1 0x4 ADD PUSH2 0x397 SWAP1 PUSH2 0x2EB7 JUMP JUMPDEST DUP2 PUSH1 0x0 DUP1 DUP3 DUP2 MSTORE PUSH1 0x1 PUSH1 0x20 MSTORE PUSH1 0x40 SWAP1 KECCAK256 PUSH1 0x9 ADD SLOAD PUSH3 0x10000 SWAP1 DIV PUSH1 0xFF AND PUSH1 0x3 DUP2 GT ISZERO PUSH2 0x57C JUMPI PUSH2 0x57C PUSH2 0x2AC3 JUMP JUMPDEST EQ PUSH2 0x599 JUMPI PUSH1 0x40 MLOAD PUSH3 0x461BCD PUSH1 0xE5 SHL DUP2 MSTORE PUSH1 0x4 ADD PUSH2 0x397 SWAP1 PUSH2 0x2EE5 JUMP JUMPDEST PUSH1 0x0 DUP4 DUP2 MSTORE PUSH1 0x1 PUSH1 0x20 SWAP1 DUP2 MSTORE PUSH1 0x40 DUP1 DUP4 KECCAK256 PUSH1 0x3 DUP4 MSTORE DUP2 DUP5 KECCAK256 CALLER DUP6 MSTORE SWAP1 SWAP3 MSTORE SWAP1 SWAP2 KECCAK256 SLOAD PUSH1 0xFF AND PUSH2 0x601 JUMPI PUSH1 0x40 MLOAD PUSH3 0x461BCD PUSH1 0xE5 SHL DUP2 MSTORE PUSH1 0x20 PUSH1 0x4 DUP3 ADD MSTORE PUSH1 0x14 PUSH1 0x24 DUP3 ADD MSTORE PUSH20 0x2830B1BA1D103737BA10309033BAB0B93234B0B7 PUSH1 0x61 SHL PUSH1 0x44 DUP3 ADD MSTORE PUSH1 0x64 ADD PUSH2 0x397 JUMP JUMPDEST PUSH1 0x0 DUP5 DUP2 MSTORE PUSH1 0x4 PUSH1 0x20 SWAP1 DUP2 MSTORE PUSH1 0x40 DUP1 DUP4 KECCAK256 CALLER DUP5 MSTORE SWAP1 SWAP2 MSTORE SWAP1 KECCAK256 SLOAD PUSH1 0xFF AND ISZERO PUSH2 0x664 JUMPI PUSH1 0x40 MLOAD PUSH3 0x461BCD PUSH1 0xE5 SHL DUP2 MSTORE PUSH1 0x20 PUSH1 0x4 DUP3 ADD MSTORE PUSH1 0x16 PUSH1 0x24 DUP3 ADD MSTORE PUSH22 0x141858DD0E88185B1C9958591E48185C1C1C9BDD9959 PUSH1 0x52 SHL PUSH1 0x44 DUP3 ADD MSTORE PUSH1 0x64 ADD PUSH2 0x397 JUMP JUMPDEST PUSH1 0x0 DUP2 PUSH1 0x8 ADD SLOAD GT PUSH2 0x6B8 JUMPI PUSH1 0x40 MLOAD PUSH3 0x461BCD PUSH1 0xE5 SHL DUP2 MSTORE PUSH1 0x20 PUSH1 0x4 DUP3 ADD MSTORE PUSH1 0x1A PUSH1 0x24 DUP3 ADD MSTORE PUSH32 0x506163743A206E6F2072656C6561736520726571756573746564000000000000 PUSH1 0x44 DUP3 ADD MSTORE PUSH1 0x64 ADD PUSH2 0x397 JUMP JUMPDEST PUSH1 0x0 DUP5 DUP2 MSTORE PUSH1 0x4 PUSH1 0x20 SWAP1 DUP2 MSTORE PUSH1 0x40 DUP1 DUP4 KECCAK256 CALLER DUP5 MSTORE SWAP1 SWAP2 MSTORE SWAP1 KECCAK256 DUP1 SLOAD PUSH1 0xFF NOT AND PUSH1 0x1 SWAP1 DUP2 OR SWAP1 SWAP2 SSTORE PUSH1 0x9 DUP3 ADD DUP1 SLOAD PUSH2 0x100 SWAP1 DIV PUSH1 0xFF AND SWAP2 PUSH2 0x6F7 DUP4 PUSH2 0x2F25 JUMP JUMPDEST SWAP2 SWAP1 PUSH2 0x100 EXP DUP2 SLOAD DUP2 PUSH1 0xFF MUL NOT AND SWAP1 DUP4 PUSH1 0xFF AND MUL OR SWAP1 SSTORE POP POP CALLER PUSH1 0x1 PUSH1 0x1 PUSH1 0xA0 SHL SUB AND DUP5 PUSH32 0x79FABECEC253AFACF6F463953C9593ED9A5A910B601F3BFD30BE8E404C45F1AB PUSH1 0x40 MLOAD PUSH1 0x40 MLOAD DUP1 SWAP2 SUB SWAP1 LOG3 PUSH1 0x40 MLOAD CALLER SWAP1 DUP6 SWAP1 PUSH32 0x492F404869834BBFB3DFD354D8EBD27CA988AA59EDA4724D2E604400E1635DF0 SWAP1 PUSH1 0x0 SWAP1 LOG3 POP POP POP POP JUMP JUMPDEST PUSH1 0x1 PUSH1 0x1 PUSH1 0xA0 SHL SUB DUP2 AND PUSH1 0x0 SWAP1 DUP2 MSTORE PUSH1 0x5 PUSH1 0x20 SWAP1 DUP2 MSTORE PUSH1 0x40 SWAP2 DUP3 SWAP1 KECCAK256 DUP1 SLOAD DUP4 MLOAD DUP2 DUP5 MUL DUP2 ADD DUP5 ADD SWAP1 SWAP5 MSTORE DUP1 DUP5 MSTORE PUSH1 0x60 SWAP4 SWAP3 DUP4 ADD DUP3 DUP3 DUP1 ISZERO PUSH2 0x7DA JUMPI PUSH1 0x20 MUL DUP3 ADD SWAP2 SWAP1 PUSH1 0x0 MSTORE PUSH1 0x20 PUSH1 0x0 KECCAK256 SWAP1 JUMPDEST DUP2 SLOAD DUP2 MSTORE PUSH1 0x20 ADD SWAP1 PUSH1 0x1 ADD SWAP1 DUP1 DUP4 GT PUSH2 0x7C6 JUMPI JUMPDEST POP POP POP POP POP SWAP1 POP SWAP2 SWAP1 POP JUMP JUMPDEST PUSH2 0x7EE PUSH2 0x213A JUMP JUMPDEST PUSH1 0x0 DUP2 DUP2 MSTORE PUSH1 0x1 PUSH1 0x20 MSTORE PUSH1 0x40 SWAP1 KECCAK256 SLOAD DUP2 SWAP1 PUSH1 0x1 PUSH1 0x1 PUSH1 0xA0 SHL SUB AND CALLER EQ PUSH2 0x826 JUMPI PUSH1 0x40 MLOAD PUSH3 0x461BCD PUSH1 0xE5 SHL DUP2 MSTORE PUSH1 0x4 ADD PUSH2 0x397 SWAP1 PUSH2 0x2E8E JUMP JUMPDEST PUSH1 0x0 DUP3 DUP2 MSTORE PUSH1 0x1 PUSH1 0x20 MSTORE PUSH1 0x40 SWAP1 KECCAK256 SLOAD DUP3 SWAP1 PUSH1 0x1 PUSH1 0x1 PUSH1 0xA0 SHL SUB AND PUSH2 0x85C JUMPI PUSH1 0x40 MLOAD PUSH3 0x461BCD PUSH1 0xE5 SHL DUP2 MSTORE PUSH1 0x4 ADD PUSH2 0x397 SWAP1 PUSH2 0x2EB7 JUMP JUMPDEST DUP3 PUSH1 0x0 DUP1 DUP3 DUP2 MSTORE PUSH1 0x1 PUSH1 0x20 MSTORE PUSH1 0x40 SWAP1 KECCAK256 PUSH1 0x9 ADD SLOAD PUSH3 0x10000 SWAP1 DIV PUSH1 0xFF AND PUSH1 0x3 DUP2 GT ISZERO PUSH2 0x88A JUMPI PUSH2 0x88A PUSH2 0x2AC3 JUMP JUMPDEST EQ PUSH2 0x8A7 JUMPI PUSH1 0x40 MLOAD PUSH3 0x461BCD PUSH1 0xE5 SHL DUP2 MSTORE PUSH1 0x4 ADD PUSH2 0x397 SWAP1 PUSH2 0x2EE5 JUMP JUMPDEST PUSH1 0x0 DUP5 DUP2 MSTORE PUSH1 0x1 PUSH1 0x20 MSTORE PUSH1 0x40 SWAP1 KECCAK256 PUSH1 0x2 DUP2 ADD SLOAD PUSH2 0x906 JUMPI PUSH1 0x40 MLOAD PUSH3 0x461BCD PUSH1 0xE5 SHL DUP2 MSTORE PUSH1 0x20 PUSH1 0x4 DUP3 ADD MSTORE PUSH1 0x18 PUSH1 0x24 DUP3 ADD MSTORE PUSH32 0x506163743A206E6F7468696E6720746F2072656C656173650000000000000000 PUSH1 0x44 DUP3 ADD MSTORE PUSH1 0x64 ADD PUSH2 0x397 JUMP JUMPDEST PUSH2 0x910 DUP6 DUP3 PUSH2 0x2156 JUMP JUMPDEST PUSH1 0x2 DUP2 ADD DUP1 SLOAD PUSH1 0x0 SWAP2 DUP3 SWAP1 SSTORE PUSH1 0x9 DUP4 ADD DUP1 SLOAD PUSH3 0xFF0000 NOT AND PUSH3 0x10000 OR SWAP1 SSTORE DUP3 SLOAD PUSH1 0x1 PUSH1 0x1 PUSH1 0xA0 SHL SUB AND DUP3 MSTORE PUSH1 0x6 PUSH1 0x20 MSTORE PUSH1 0x40 DUP3 KECCAK256 DUP1 SLOAD SWAP2 SWAP3 PUSH1 0xA SWAP3 PUSH2 0x957 SWAP1 DUP5 SWAP1 PUSH2 0x2F44 JUMP JUMPDEST SWAP1 SWAP2 SSTORE POP POP DUP2 SLOAD PUSH1 0x1 PUSH1 0x1 PUSH1 0xA0 SHL SUB AND PUSH1 0x0 DUP2 DUP2 MSTORE PUSH1 0x6 PUSH1 0x20 SWAP1 DUP2 MSTORE PUSH1 0x40 SWAP2 DUP3 SWAP1 KECCAK256 SLOAD SWAP2 MLOAD DUP3 DUP2 MSTORE SWAP2 SWAP3 SWAP2 DUP10 SWAP2 PUSH32 0x33F3BA6EA8021E86F3D13B1094665A06A7ECE080A19C828F7EDFC3C990F9A771 SWAP2 ADD PUSH1 0x40 MLOAD DUP1 SWAP2 SUB SWAP1 LOG3 PUSH1 0x1 DUP4 ADD SLOAD PUSH1 0x1 PUSH1 0x1 PUSH1 0xA0 SHL SUB AND PUSH2 0xA69 JUMPI DUP3 SLOAD PUSH1 0x40 MLOAD PUSH1 0x0 SWAP2 PUSH1 0x1 PUSH1 0x1 PUSH1 0xA0 SHL SUB AND SWAP1 DUP5 SWAP1 DUP4 DUP2 DUP2 DUP2 DUP6 DUP8 GAS CALL SWAP3 POP POP POP RETURNDATASIZE DUP1 PUSH1 0x0 DUP2 EQ PUSH2 0xA0D JUMPI PUSH1 0x40 MLOAD SWAP2 POP PUSH1 0x1F NOT PUSH1 0x3F RETURNDATASIZE ADD AND DUP3 ADD PUSH1 0x40 MSTORE RETURNDATASIZE DUP3 MSTORE RETURNDATASIZE PUSH1 0x0 PUSH1 0x20 DUP5 ADD RETURNDATACOPY PUSH2 0xA12 JUMP JUMPDEST PUSH1 0x60 SWAP2 POP JUMPDEST POP POP SWAP1 POP DUP1 PUSH2 0xA63 JUMPI PUSH1 0x40 MLOAD PUSH3 0x461BCD PUSH1 0xE5 SHL DUP2 MSTORE PUSH1 0x20 PUSH1 0x4 DUP3 ADD MSTORE PUSH1 0x19 PUSH1 0x24 DUP3 ADD MSTORE PUSH32 0x506163743A20455448207472616E73666572206661696C656400000000000000 PUSH1 0x44 DUP3 ADD MSTORE PUSH1 0x64 ADD PUSH2 0x397 JUMP JUMPDEST POP PUSH2 0xA87 JUMP JUMPDEST DUP3 SLOAD PUSH1 0x1 DUP5 ADD SLOAD PUSH2 0xA87 SWAP2 PUSH1 0x1 PUSH1 0x1 PUSH1 0xA0 SHL SUB SWAP2 DUP3 AND SWAP2 AND DUP5 PUSH2 0x2617 JUMP JUMPDEST DUP3 SLOAD PUSH1 0x40 MLOAD DUP4 DUP2 MSTORE PUSH1 0x1 PUSH1 0x1 PUSH1 0xA0 SHL SUB SWAP1 SWAP2 AND SWAP1 DUP9 SWAP1 PUSH32 0xC9CC3CE9BDDEB89B25B90A7C9B4AB2F8FC04ECDC5F2FF011D69AA3A7D2A5E649 SWAP1 PUSH1 0x20 ADD PUSH1 0x40 MLOAD DUP1 SWAP2 SUB SWAP1 LOG3 POP POP POP POP POP POP PUSH2 0xAE7 PUSH1 0x1 PUSH1 0x0 DUP1 MLOAD PUSH1 0x20 PUSH2 0x312E DUP4 CODECOPY DUP2 MLOAD SWAP2 MSTORE SSTORE JUMP JUMPDEST POP JUMP JUMPDEST PUSH2 0xB4E PUSH1 0x40 DUP1 MLOAD PUSH2 0x180 DUP2 ADD DUP3 MSTORE PUSH1 0x0 DUP1 DUP3 MSTORE PUSH1 0x20 DUP3 ADD DUP2 SWAP1 MSTORE SWAP2 DUP2 ADD DUP3 SWAP1 MSTORE PUSH1 0x60 DUP1 DUP3 ADD DUP4 SWAP1 MSTORE PUSH1 0x80 DUP3 ADD DUP2 SWAP1 MSTORE PUSH1 0xA0 DUP3 ADD DUP2 SWAP1 MSTORE PUSH1 0xC0 DUP3 ADD MSTORE PUSH1 0xE0 DUP2 ADD DUP3 SWAP1 MSTORE PUSH2 0x100 DUP2 ADD DUP3 SWAP1 MSTORE PUSH2 0x120 DUP2 ADD DUP3 SWAP1 MSTORE PUSH2 0x140 DUP2 ADD DUP3 SWAP1 MSTORE SWAP1 PUSH2 0x160 DUP3 ADD MSTORE SWAP1 JUMP JUMPDEST PUSH1 0x0 DUP3 DUP2 MSTORE PUSH1 0x1 PUSH1 0x20 DUP2 DUP2 MSTORE PUSH1 0x40 SWAP3 DUP4 SWAP1 KECCAK256 DUP4 MLOAD PUSH2 0x180 DUP2 ADD DUP6 MSTORE DUP2 SLOAD PUSH1 0x1 PUSH1 0x1 PUSH1 0xA0 SHL SUB SWAP1 DUP2 AND DUP3 MSTORE SWAP4 DUP3 ADD SLOAD SWAP1 SWAP4 AND SWAP2 DUP4 ADD SWAP2 SWAP1 SWAP2 MSTORE PUSH1 0x2 DUP2 ADD SLOAD SWAP3 DUP3 ADD SWAP3 SWAP1 SWAP3 MSTORE PUSH1 0x3 DUP3 ADD SLOAD SWAP1 SWAP2 SWAP1 PUSH1 0x60 DUP4 ADD SWAP1 PUSH1 0xFF AND PUSH1 0x4 DUP2 GT ISZERO PUSH2 0xBB3 JUMPI PUSH2 0xBB3 PUSH2 0x2AC3 JUMP JUMPDEST PUSH1 0x4 DUP2 GT ISZERO PUSH2 0xBC4 JUMPI PUSH2 0xBC4 PUSH2 0x2AC3 JUMP JUMPDEST DUP2 MSTORE PUSH1 0x20 ADD PUSH1 0x4 DUP3 ADD DUP1 SLOAD PUSH2 0xBD8 SWAP1 PUSH2 0x2F57 JUMP JUMPDEST DUP1 PUSH1 0x1F ADD PUSH1 0x20 DUP1 SWAP2 DIV MUL PUSH1 0x20 ADD PUSH1 0x40 MLOAD SWAP1 DUP2 ADD PUSH1 0x40 MSTORE DUP1 SWAP3 SWAP2 SWAP1 DUP2 DUP2 MSTORE PUSH1 0x20 ADD DUP3 DUP1 SLOAD PUSH2 0xC04 SWAP1 PUSH2 0x2F57 JUMP JUMPDEST DUP1 ISZERO PUSH2 0xC51 JUMPI DUP1 PUSH1 0x1F LT PUSH2 0xC26 JUMPI PUSH2 0x100 DUP1 DUP4 SLOAD DIV MUL DUP4 MSTORE SWAP2 PUSH1 0x20 ADD SWAP2 PUSH2 0xC51 JUMP JUMPDEST DUP3 ADD SWAP2 SWAP1 PUSH1 0x0 MSTORE PUSH1 0x20 PUSH1 0x0 KECCAK256 SWAP1 JUMPDEST DUP2 SLOAD DUP2 MSTORE SWAP1 PUSH1 0x1 ADD SWAP1 PUSH1 0x20 ADD DUP1 DUP4 GT PUSH2 0xC34 JUMPI DUP3 SWAP1 SUB PUSH1 0x1F AND DUP3 ADD SWAP2 JUMPDEST POP POP POP POP POP DUP2 MSTORE PUSH1 0x20 ADD PUSH1 0x5 DUP3 ADD DUP1 SLOAD PUSH2 0xC6A SWAP1 PUSH2 0x2F57 JUMP JUMPDEST DUP1 PUSH1 0x1F ADD PUSH1 0x20 DUP1 SWAP2 DIV MUL PUSH1 0x20 ADD PUSH1 0x40 MLOAD SWAP1 DUP2 ADD PUSH1 0x40 MSTORE DUP1 SWAP3 SWAP2 SWAP1 DUP2 DUP2 MSTORE PUSH1 0x20 ADD DUP3 DUP1 SLOAD PUSH2 0xC96 SWAP1 PUSH2 0x2F57 JUMP JUMPDEST DUP1 ISZERO PUSH2 0xCE3 JUMPI DUP1 PUSH1 0x1F LT PUSH2 0xCB8 JUMPI PUSH2 0x100 DUP1 DUP4 SLOAD DIV MUL DUP4 MSTORE SWAP2 PUSH1 0x20 ADD SWAP2 PUSH2 0xCE3 JUMP JUMPDEST DUP3 ADD SWAP2 SWAP1 PUSH1 0x0 MSTORE PUSH1 0x20 PUSH1 0x0 KECCAK256 SWAP1 JUMPDEST DUP2 SLOAD DUP2 MSTORE SWAP1 PUSH1 0x1 ADD SWAP1 PUSH1 0x20 ADD DUP1 DUP4 GT PUSH2 0xCC6 JUMPI DUP3 SWAP1 SUB PUSH1 0x1F AND DUP3 ADD SWAP2 JUMPDEST POP POP POP POP POP DUP2 MSTORE PUSH1 0x20 ADD PUSH1 0x6 DUP3 ADD DUP1 SLOAD PUSH2 0xCFC SWAP1 PUSH2 0x2F57 JUMP JUMPDEST DUP1 PUSH1 0x1F ADD PUSH1 0x20 DUP1 SWAP2 DIV MUL PUSH1 0x20 ADD PUSH1 0x40 MLOAD SWAP1 DUP2 ADD PUSH1 0x40 MSTORE DUP1 SWAP3 SWAP2 SWAP1 DUP2 DUP2 MSTORE PUSH1 0x20 ADD DUP3 DUP1 SLOAD PUSH2 0xD28 SWAP1 PUSH2 0x2F57 JUMP JUMPDEST DUP1 ISZERO PUSH2 0xD75 JUMPI DUP1 PUSH1 0x1F LT PUSH2 0xD4A JUMPI PUSH2 0x100 DUP1 DUP4 SLOAD DIV MUL DUP4 MSTORE SWAP2 PUSH1 0x20 ADD SWAP2 PUSH2 0xD75 JUMP JUMPDEST DUP3 ADD SWAP2 SWAP1 PUSH1 0x0 MSTORE PUSH1 0x20 PUSH1 0x0 KECCAK256 SWAP1 JUMPDEST DUP2 SLOAD DUP2 MSTORE SWAP1 PUSH1 0x1 ADD SWAP1 PUSH1 0x20 ADD DUP1 DUP4 GT PUSH2 0xD58 JUMPI DUP3 SWAP1 SUB PUSH1 0x1F AND DUP3 ADD SWAP2 JUMPDEST POP POP POP SWAP2 DUP4 MSTORE POP POP PUSH1 0x7 DUP3 ADD SLOAD PUSH1 0x20 DUP3 ADD MSTORE PUSH1 0x8 DUP3 ADD SLOAD PUSH1 0x40 DUP3 ADD MSTORE PUSH1 0x9 DUP3 ADD SLOAD PUSH1 0xFF DUP1 DUP3 AND PUSH1 0x60 DUP5 ADD MSTORE PUSH2 0x100 DUP3 DIV DUP2 AND PUSH1 0x80 DUP5 ADD MSTORE PUSH1 0xA0 SWAP1 SWAP3 ADD SWAP2 PUSH3 0x10000 SWAP1 SWAP2 DIV AND PUSH1 0x3 DUP2 GT ISZERO PUSH2 0xDCB JUMPI PUSH2 0xDCB PUSH2 0x2AC3 JUMP JUMPDEST PUSH1 0x3 DUP2 GT ISZERO PUSH2 0xDDC JUMPI PUSH2 0xDDC PUSH2 0x2AC3 JUMP JUMPDEST SWAP1 MSTORE POP SWAP3 SWAP2 POP POP JUMP JUMPDEST PUSH2 0xDED PUSH2 0x213A JUMP JUMPDEST PUSH1 0x0 DUP3 DUP2 MSTORE PUSH1 0x1 PUSH1 0x20 MSTORE PUSH1 0x40 SWAP1 KECCAK256 SLOAD DUP3 SWAP1 PUSH1 0x1 PUSH1 0x1 PUSH1 0xA0 SHL SUB AND PUSH2 0xE23 JUMPI PUSH1 0x40 MLOAD PUSH3 0x461BCD PUSH1 0xE5 SHL DUP2 MSTORE PUSH1 0x4 ADD PUSH2 0x397 SWAP1 PUSH2 0x2EB7 JUMP JUMPDEST DUP3 PUSH1 0x0 DUP1 DUP3 DUP2 MSTORE PUSH1 0x1 PUSH1 0x20 MSTORE PUSH1 0x40 SWAP1 KECCAK256 PUSH1 0x9 ADD SLOAD PUSH3 0x10000 SWAP1 DIV PUSH1 0xFF AND PUSH1 0x3 DUP2 GT ISZERO PUSH2 0xE51 JUMPI PUSH2 0xE51 PUSH2 0x2AC3 JUMP JUMPDEST EQ PUSH2 0xE6E JUMPI PUSH1 0x40 MLOAD PUSH3 0x461BCD PUSH1 0xE5 SHL DUP2 MSTORE PUSH1 0x4 ADD PUSH2 0x397 SWAP1 PUSH2 0x2EE5 JUMP JUMPDEST PUSH1 0x0 DUP5 DUP2 MSTORE PUSH1 0x1 PUSH1 0x20 DUP2 SWAP1 MSTORE PUSH1 0x40 SWAP1 SWAP2 KECCAK256 SWAP1 DUP2 ADD SLOAD PUSH1 0x1 PUSH1 0x1 PUSH1 0xA0 SHL SUB AND PUSH2 0xEE3 JUMPI PUSH1 0x40 MLOAD PUSH3 0x461BCD PUSH1 0xE5 SHL DUP2 MSTORE PUSH1 0x20 PUSH1 0x4 DUP3 ADD MSTORE PUSH1 0x22 PUSH1 0x24 DUP3 ADD MSTORE PUSH32 0x506163743A20757365206465706F73697420666F72206E617469766520746F6B PUSH1 0x44 DUP3 ADD MSTORE PUSH2 0x32B7 PUSH1 0xF1 SHL PUSH1 0x64 DUP3 ADD MSTORE PUSH1 0x84 ADD PUSH2 0x397 JUMP JUMPDEST PUSH1 0x0 DUP5 GT PUSH2 0xF2C JUMPI PUSH1 0x40 MLOAD PUSH3 0x461BCD PUSH1 0xE5 SHL DUP2 MSTORE PUSH1 0x20 PUSH1 0x4 DUP3 ADD MSTORE PUSH1 0x16 PUSH1 0x24 DUP3 ADD MSTORE PUSH22 0x506163743A206D757374206465706F736974203E203 PUSH1 0x54 SHL PUSH1 0x44 DUP3 ADD MSTORE PUSH1 0x64 ADD PUSH2 0x397 JUMP JUMPDEST PUSH1 0x1 DUP2 ADD SLOAD PUSH1 0x40 MLOAD PUSH4 0x70A08231 PUSH1 0xE0 SHL DUP2 MSTORE ADDRESS PUSH1 0x4 DUP3 ADD MSTORE PUSH1 0x0 SWAP2 PUSH1 0x1 PUSH1 0x1 PUSH1 0xA0 SHL SUB AND SWAP1 PUSH4 0x70A08231 SWAP1 PUSH1 0x24 ADD PUSH1 0x20 PUSH1 0x40 MLOAD DUP1 DUP4 SUB DUP2 DUP7 GAS STATICCALL ISZERO DUP1 ISZERO PUSH2 0xF77 JUMPI RETURNDATASIZE PUSH1 0x0 DUP1 RETURNDATACOPY RETURNDATASIZE PUSH1 0x0 REVERT JUMPDEST POP POP POP POP PUSH1 0x40 MLOAD RETURNDATASIZE PUSH1 0x1F NOT PUSH1 0x1F DUP3 ADD AND DUP3 ADD DUP1 PUSH1 0x40 MSTORE POP DUP2 ADD SWAP1 PUSH2 0xF9B SWAP2 SWAP1 PUSH2 0x2F91 JUMP JUMPDEST PUSH1 0x1 DUP4 ADD SLOAD SWAP1 SWAP2 POP PUSH2 0xFB8 SWAP1 PUSH1 0x1 PUSH1 0x1 PUSH1 0xA0 SHL SUB AND CALLER ADDRESS DUP9 PUSH2 0x264C JUMP JUMPDEST PUSH1 0x1 DUP3 ADD SLOAD PUSH1 0x40 MLOAD PUSH4 0x70A08231 PUSH1 0xE0 SHL DUP2 MSTORE ADDRESS PUSH1 0x4 DUP3 ADD MSTORE PUSH1 0x0 SWAP2 DUP4 SWAP2 PUSH1 0x1 PUSH1 0x1 PUSH1 0xA0 SHL SUB SWAP1 SWAP2 AND SWAP1 PUSH4 0x70A08231 SWAP1 PUSH1 0x24 ADD PUSH1 0x20 PUSH1 0x40 MLOAD DUP1 DUP4 SUB DUP2 DUP7 GAS STATICCALL ISZERO DUP1 ISZERO PUSH2 0x1007 JUMPI RETURNDATASIZE PUSH1 0x0 DUP1 RETURNDATACOPY RETURNDATASIZE PUSH1 0x0 REVERT JUMPDEST POP POP POP POP PUSH1 0x40 MLOAD RETURNDATASIZE PUSH1 0x1F NOT PUSH1 0x1F DUP3 ADD AND DUP3 ADD DUP1 PUSH1 0x40 MSTORE POP DUP2 ADD SWAP1 PUSH2 0x102B SWAP2 SWAP1 PUSH2 0x2F91 JUMP JUMPDEST PUSH2 0x1035 SWAP2 SWAP1 PUSH2 0x2FAA JUMP JUMPDEST SWAP1 POP DUP1 DUP4 PUSH1 0x2 ADD PUSH1 0x0 DUP3 DUP3 SLOAD PUSH2 0x104B SWAP2 SWAP1 PUSH2 0x2F44 JUMP JUMPDEST SWAP1 SWAP2 SSTORE POP POP PUSH1 0x1 DUP4 ADD SLOAD PUSH1 0x40 DUP1 MLOAD PUSH1 0x1 PUSH1 0x1 PUSH1 0xA0 SHL SUB SWAP1 SWAP3 AND DUP3 MSTORE PUSH1 0x20 DUP3 ADD DUP4 SWAP1 MSTORE DUP9 SWAP2 PUSH32 0x377EF0ADCE1EAE318AFAAD309C3B0F6C378FA1A294064DECCDA8D15AD28858EB SWAP2 ADD PUSH1 0x40 MLOAD DUP1 SWAP2 SUB SWAP1 LOG2 POP POP POP POP POP PUSH2 0x10B6 PUSH1 0x1 PUSH1 0x0 DUP1 MLOAD PUSH1 0x20 PUSH2 0x312E DUP4 CODECOPY DUP2 MLOAD SWAP2 MSTORE SSTORE JUMP JUMPDEST POP POP JUMP JUMPDEST PUSH1 0x0 DUP3 DUP2 MSTORE PUSH1 0x4 PUSH1 0x20 SWAP1 DUP2 MSTORE PUSH1 0x40 DUP1 DUP4 KECCAK256 PUSH1 0x1 PUSH1 0x1 PUSH1 0xA0 SHL SUB DUP6 AND DUP5 MSTORE SWAP1 SWAP2 MSTORE SWAP1 KECCAK256 SLOAD PUSH1 0xFF AND JUMPDEST SWAP3 SWAP2 POP POP JUMP JUMPDEST PUSH1 0x0 DUP4 DUP2 MSTORE PUSH1 0x1 PUSH1 0x20 MSTORE PUSH1 0x40 SWAP1 KECCAK256 SLOAD DUP4 SWAP1 PUSH1 0x1 PUSH1 0x1 PUSH1 0xA0 SHL SUB AND CALLER EQ PUSH2 0x111F JUMPI PUSH1 0x40 MLOAD PUSH3 0x461BCD PUSH1 0xE5 SHL DUP2 MSTORE PUSH1 0x4 ADD PUSH2 0x397 SWAP1 PUSH2 0x2E8E JUMP JUMPDEST PUSH1 0x0 DUP5 DUP2 MSTORE PUSH1 0x1 PUSH1 0x20 MSTORE PUSH1 0x40 SWAP1 KECCAK256 SLOAD DUP5 SWAP1 PUSH1 0x1 PUSH1 0x1 PUSH1 0xA0 SHL SUB AND PUSH2 0x1155 JUMPI PUSH1 0x40 MLOAD PUSH3 0x461BCD PUSH1 0xE5 SHL DUP2 MSTORE PUSH1 0x4 ADD PUSH2 0x397 SWAP1 PUSH2 0x2EB7 JUMP JUMPDEST DUP5 PUSH1 0x0 DUP1 DUP3 DUP2 MSTORE PUSH1 0x1 PUSH1 0x20 MSTORE PUSH1 0x40 SWAP1 KECCAK256 PUSH1 0x9 ADD SLOAD PUSH3 0x10000 SWAP1 DIV PUSH1 0xFF AND PUSH1 0x3 DUP2 GT ISZERO PUSH2 0x1183 JUMPI PUSH2 0x1183 PUSH2 0x2AC3 JUMP JUMPDEST EQ PUSH2 0x11A0 JUMPI PUSH1 0x40 MLOAD PUSH3 0x461BCD PUSH1 0xE5 SHL DUP2 MSTORE PUSH1 0x4 ADD PUSH2 0x397 SWAP1 PUSH2 0x2EE5 JUMP JUMPDEST DUP4 ISZERO DUP1 ISZERO SWAP1 PUSH2 0x11B0 JUMPI POP PUSH1 0x5 DUP5 GT ISZERO JUMPDEST PUSH2 0x11F7 JUMPI PUSH1 0x40 MLOAD PUSH3 0x461BCD PUSH1 0xE5 SHL DUP2 MSTORE PUSH1 0x20 PUSH1 0x4 DUP3 ADD MSTORE PUSH1 0x18 PUSH1 0x24 DUP3 ADD MSTORE PUSH24 0x506163743A20312D3520677561726469616E73206F6E6C79 PUSH1 0x40 SHL PUSH1 0x44 DUP3 ADD MSTORE PUSH1 0x64 ADD PUSH2 0x397 JUMP JUMPDEST PUSH1 0x0 DUP7 DUP2 MSTORE PUSH1 0x2 PUSH1 0x20 MSTORE PUSH1 0x40 DUP2 KECCAK256 SWAP1 JUMPDEST DUP2 SLOAD DUP2 LT ISZERO PUSH2 0x12D2 JUMPI PUSH1 0x0 DUP9 DUP2 MSTORE PUSH1 0x3 PUSH1 0x20 MSTORE PUSH1 0x40 DUP2 KECCAK256 DUP4 SLOAD DUP3 SWAP1 DUP6 SWAP1 DUP6 SWAP1 DUP2 LT PUSH2 0x1234 JUMPI PUSH2 0x1234 PUSH2 0x2FBD JUMP JUMPDEST PUSH1 0x0 SWAP2 DUP3 MSTORE PUSH1 0x20 DUP1 DUP4 KECCAK256 SWAP2 SWAP1 SWAP2 ADD SLOAD PUSH1 0x1 PUSH1 0x1 PUSH1 0xA0 SHL SUB AND DUP4 MSTORE DUP3 DUP2 ADD SWAP4 SWAP1 SWAP4 MSTORE PUSH1 0x40 SWAP2 DUP3 ADD DUP2 KECCAK256 DUP1 SLOAD PUSH1 0xFF NOT AND SWAP5 ISZERO ISZERO SWAP5 SWAP1 SWAP5 OR SWAP1 SWAP4 SSTORE DUP11 DUP4 MSTORE PUSH1 0x4 SWAP1 SWAP2 MSTORE DUP2 KECCAK256 DUP4 SLOAD DUP3 SWAP1 DUP6 SWAP1 DUP6 SWAP1 DUP2 LT PUSH2 0x128C JUMPI PUSH2 0x128C PUSH2 0x2FBD JUMP JUMPDEST PUSH1 0x0 SWAP2 DUP3 MSTORE PUSH1 0x20 DUP1 DUP4 KECCAK256 SWAP2 SWAP1 SWAP2 ADD SLOAD PUSH1 0x1 PUSH1 0x1 PUSH1 0xA0 SHL SUB AND DUP4 MSTORE DUP3 ADD SWAP3 SWAP1 SWAP3 MSTORE PUSH1 0x40 ADD SWAP1 KECCAK256 DUP1 SLOAD PUSH1 0xFF NOT AND SWAP2 ISZERO ISZERO SWAP2 SWAP1 SWAP2 OR SWAP1 SSTORE DUP1 PUSH2 0x12CA DUP2 PUSH2 0x2FD3 JUMP JUMPDEST SWAP2 POP POP PUSH2 0x1207 JUMP JUMPDEST POP PUSH1 0x0 DUP8 DUP2 MSTORE PUSH1 0x2 PUSH1 0x20 MSTORE PUSH1 0x40 DUP2 KECCAK256 PUSH2 0x12EA SWAP2 PUSH2 0x29F6 JUMP JUMPDEST PUSH1 0x0 DUP8 DUP2 MSTORE PUSH1 0x1 PUSH1 0x20 MSTORE PUSH1 0x40 DUP2 KECCAK256 PUSH1 0x9 DUP2 ADD DUP1 SLOAD PUSH2 0xFF00 NOT AND SWAP1 SSTORE PUSH1 0x8 DUP2 ADD DUP3 SWAP1 SSTORE SWAP1 JUMPDEST DUP7 DUP2 LT ISZERO PUSH2 0x14F4 JUMPI PUSH1 0x0 DUP9 DUP9 DUP4 DUP2 DUP2 LT PUSH2 0x132A JUMPI PUSH2 0x132A PUSH2 0x2FBD JUMP JUMPDEST SWAP1 POP PUSH1 0x20 MUL ADD PUSH1 0x20 DUP2 ADD SWAP1 PUSH2 0x133F SWAP2 SWAP1 PUSH2 0x2A5D JUMP JUMPDEST SWAP1 POP PUSH1 0x1 PUSH1 0x1 PUSH1 0xA0 SHL SUB DUP2 AND PUSH2 0x1397 JUMPI PUSH1 0x40 MLOAD PUSH3 0x461BCD PUSH1 0xE5 SHL DUP2 MSTORE PUSH1 0x20 PUSH1 0x4 DUP3 ADD MSTORE PUSH1 0x1B PUSH1 0x24 DUP3 ADD MSTORE PUSH32 0x506163743A207A65726F206164647265737320677561726469616E0000000000 PUSH1 0x44 DUP3 ADD MSTORE PUSH1 0x64 ADD PUSH2 0x397 JUMP JUMPDEST CALLER PUSH1 0x1 PUSH1 0x1 PUSH1 0xA0 SHL SUB DUP3 AND SUB PUSH2 0x13EF JUMPI PUSH1 0x40 MLOAD PUSH3 0x461BCD PUSH1 0xE5 SHL DUP2 MSTORE PUSH1 0x20 PUSH1 0x4 DUP3 ADD MSTORE PUSH1 0x1E PUSH1 0x24 DUP3 ADD MSTORE PUSH32 0x506163743A206F776E65722063616E6E6F7420626520677561726469616E0000 PUSH1 0x44 DUP3 ADD MSTORE PUSH1 0x64 ADD PUSH2 0x397 JUMP JUMPDEST PUSH1 0x0 DUP11 DUP2 MSTORE PUSH1 0x3 PUSH1 0x20 SWAP1 DUP2 MSTORE PUSH1 0x40 DUP1 DUP4 KECCAK256 PUSH1 0x1 PUSH1 0x1 PUSH1 0xA0 SHL SUB DUP6 AND DUP5 MSTORE SWAP1 SWAP2 MSTORE SWAP1 KECCAK256 SLOAD PUSH1 0xFF AND ISZERO PUSH2 0x145D JUMPI PUSH1 0x40 MLOAD PUSH3 0x461BCD PUSH1 0xE5 SHL DUP2 MSTORE PUSH1 0x20 PUSH1 0x4 DUP3 ADD MSTORE PUSH1 0x18 PUSH1 0x24 DUP3 ADD MSTORE PUSH24 0x2830B1BA1D10323AB83634B1B0BA329033BAB0B93234B0B7 PUSH1 0x41 SHL PUSH1 0x44 DUP3 ADD MSTORE PUSH1 0x64 ADD PUSH2 0x397 JUMP JUMPDEST PUSH1 0x0 DUP11 DUP2 MSTORE PUSH1 0x2 PUSH1 0x20 SWAP1 DUP2 MSTORE PUSH1 0x40 DUP1 DUP4 KECCAK256 DUP1 SLOAD PUSH1 0x1 DUP1 DUP3 ADD DUP4 SSTORE SWAP2 DUP6 MSTORE DUP4 DUP6 KECCAK256 ADD DUP1 SLOAD PUSH1 0x1 PUSH1 0x1 PUSH1 0xA0 SHL SUB NOT AND PUSH1 0x1 PUSH1 0x1 PUSH1 0xA0 SHL SUB DUP8 AND SWAP1 DUP2 OR SWAP1 SWAP2 SSTORE DUP15 DUP6 MSTORE PUSH1 0x3 DUP5 MSTORE DUP3 DUP6 KECCAK256 DUP2 DUP7 MSTORE SWAP1 SWAP4 MSTORE DUP2 DUP5 KECCAK256 DUP1 SLOAD PUSH1 0xFF NOT AND SWAP1 SWAP2 OR SWAP1 SSTORE MLOAD SWAP1 SWAP2 DUP13 SWAP2 PUSH32 0xED3A6CDBD975FD0C899136BF181B3ECBBBE340872BB479F15D138084EB5D2497 SWAP2 SWAP1 LOG3 POP DUP1 PUSH2 0x14EC DUP2 PUSH2 0x2FD3 JUMP JUMPDEST SWAP2 POP POP PUSH2 0x130E JUMP JUMPDEST POP POP POP POP POP POP POP POP POP JUMP JUMPDEST PUSH2 0x1507 PUSH2 0x213A JUMP JUMPDEST PUSH1 0x0 DUP2 DUP2 MSTORE PUSH1 0x1 PUSH1 0x20 MSTORE PUSH1 0x40 SWAP1 KECCAK256 SLOAD DUP2 SWAP1 PUSH1 0x1 PUSH1 0x1 PUSH1 0xA0 SHL SUB AND CALLER EQ PUSH2 0x153F JUMPI PUSH1 0x40 MLOAD PUSH3 0x461BCD PUSH1 0xE5 SHL DUP2 MSTORE PUSH1 0x4 ADD PUSH2 0x397 SWAP1 PUSH2 0x2E8E JUMP JUMPDEST PUSH1 0x0 DUP3 DUP2 MSTORE PUSH1 0x1 PUSH1 0x20 MSTORE PUSH1 0x40 SWAP1 KECCAK256 SLOAD DUP3 SWAP1 PUSH1 0x1 PUSH1 0x1 PUSH1 0xA0 SHL SUB AND PUSH2 0x1575 JUMPI PUSH1 0x40 MLOAD PUSH3 0x461BCD PUSH1 0xE5 SHL DUP2 MSTORE PUSH1 0x4 ADD PUSH2 0x397 SWAP1 PUSH2 0x2EB7 JUMP JUMPDEST DUP3 PUSH1 0x0 DUP1 DUP3 DUP2 MSTORE PUSH1 0x1 PUSH1 0x20 MSTORE PUSH1 0x40 SWAP1 KECCAK256 PUSH1 0x9 ADD SLOAD PUSH3 0x10000 SWAP1 DIV PUSH1 0xFF AND PUSH1 0x3 DUP2 GT ISZERO PUSH2 0x15A3 JUMPI PUSH2 0x15A3 PUSH2 0x2AC3 JUMP JUMPDEST EQ PUSH2 0x15C0 JUMPI PUSH1 0x40 MLOAD PUSH3 0x461BCD PUSH1 0xE5 SHL DUP2 MSTORE PUSH1 0x4 ADD PUSH2 0x397 SWAP1 PUSH2 0x2EE5 JUMP JUMPDEST PUSH1 0x0 DUP5 DUP2 MSTORE PUSH1 0x1 PUSH1 0x20 MSTORE PUSH1 0x40 SWAP1 KECCAK256 PUSH1 0x2 DUP2 ADD SLOAD ISZERO PUSH2 0x162E JUMPI PUSH1 0x40 MLOAD PUSH3 0x461BCD PUSH1 0xE5 SHL DUP2 MSTORE PUSH1 0x20 PUSH1 0x4 DUP3 ADD MSTORE PUSH1 0x25 PUSH1 0x24 DUP3 ADD MSTORE PUSH32 0x506163743A2063616E6E6F742063616E63656C2077697468206C6F636B656420 PUSH1 0x44 DUP3 ADD MSTORE PUSH5 0x66756E6473 PUSH1 0xD8 SHL PUSH1 0x64 DUP3 ADD MSTORE PUSH1 0x84 ADD PUSH2 0x397 JUMP JUMPDEST PUSH1 0x9 DUP2 ADD DUP1 SLOAD PUSH3 0xFF0000 NOT AND PUSH3 0x30000 OR SWAP1 SSTORE PUSH1 0x40 MLOAD DUP6 SWAP1 PUSH32 0x28DBA6080C86284CD7E9959E1AAB570B8874C34B7DC51DB0D8E4E74180909951 SWAP1 PUSH1 0x0 SWAP1 LOG2 POP POP POP POP PUSH2 0xAE7 PUSH1 0x1 PUSH1 0x0 DUP1 MLOAD PUSH1 0x20 PUSH2 0x312E DUP4 CODECOPY DUP2 MLOAD SWAP2 MSTORE SSTORE JUMP JUMPDEST PUSH2 0x168F PUSH2 0x213A JUMP JUMPDEST PUSH1 0x0 DUP2 DUP2 MSTORE PUSH1 0x1 PUSH1 0x20 MSTORE PUSH1 0x40 SWAP1 KECCAK256 SLOAD DUP2 SWAP1 PUSH1 0x1 PUSH1 0x1 PUSH1 0xA0 SHL SUB AND PUSH2 0x16C5 JUMPI PUSH1 0x40 MLOAD PUSH3 0x461BCD PUSH1 0xE5 SHL DUP2 MSTORE PUSH1 0x4 ADD PUSH2 0x397 SWAP1 PUSH2 0x2EB7 JUMP JUMPDEST DUP2 PUSH1 0x0 DUP1 DUP3 DUP2 MSTORE PUSH1 0x1 PUSH1 0x20 MSTORE PUSH1 0x40 SWAP1 KECCAK256 PUSH1 0x9 ADD SLOAD PUSH3 0x10000 SWAP1 DIV PUSH1 0xFF AND PUSH1 0x3 DUP2 GT ISZERO PUSH2 0x16F3 JUMPI PUSH2 0x16F3 PUSH2 0x2AC3 JUMP JUMPDEST EQ PUSH2 0x1710 JUMPI PUSH1 0x40 MLOAD PUSH3 0x461BCD PUSH1 0xE5 SHL DUP2 MSTORE PUSH1 0x4 ADD PUSH2 0x397 SWAP1 PUSH2 0x2EE5 JUMP JUMPDEST PUSH1 0x0 DUP4 DUP2 MSTORE PUSH1 0x1 PUSH1 0x20 DUP2 SWAP1 MSTORE PUSH1 0x40 SWAP1 SWAP2 KECCAK256 SWAP1 DUP2 ADD SLOAD PUSH1 0x1 PUSH1 0x1 PUSH1 0xA0 SHL SUB AND ISZERO PUSH2 0x1785 JUMPI PUSH1 0x40 MLOAD PUSH3 0x461BCD PUSH1 0xE5 SHL DUP2 MSTORE PUSH1 0x20 PUSH1 0x4 DUP3 ADD MSTORE PUSH1 0x21 PUSH1 0x24 DUP3 ADD MSTORE PUSH32 0x506163743A20757365206465706F736974455243323020666F7220746F6B656E PUSH1 0x44 DUP3 ADD MSTORE PUSH1 0x73 PUSH1 0xF8 SHL PUSH1 0x64 DUP3 ADD MSTORE PUSH1 0x84 ADD PUSH2 0x397 JUMP JUMPDEST PUSH1 0x0 CALLVALUE GT PUSH2 0x17CE JUMPI PUSH1 0x40 MLOAD PUSH3 0x461BCD PUSH1 0xE5 SHL DUP2 MSTORE PUSH1 0x20 PUSH1 0x4 DUP3 ADD MSTORE PUSH1 0x16 PUSH1 0x24 DUP3 ADD MSTORE PUSH22 0x506163743A206D757374206465706F736974203E203 PUSH1 0x54 SHL PUSH1 0x44 DUP3 ADD MSTORE PUSH1 0x64 ADD PUSH2 0x397 JUMP JUMPDEST CALLVALUE DUP2 PUSH1 0x2 ADD PUSH1 0x0 DUP3 DUP3 SLOAD PUSH2 0x17E2 SWAP2 SWAP1 PUSH2 0x2F44 JUMP JUMPDEST SWAP1 SWAP2 SSTORE POP POP PUSH1 0x40 DUP1 MLOAD PUSH1 0x0 DUP2 MSTORE CALLVALUE PUSH1 0x20 DUP3 ADD MSTORE DUP6 SWAP2 PUSH32 0x377EF0ADCE1EAE318AFAAD309C3B0F6C378FA1A294064DECCDA8D15AD28858EB SWAP2 ADD PUSH1 0x40 MLOAD DUP1 SWAP2 SUB SWAP1 LOG2 POP POP POP PUSH2 0xAE7 PUSH1 0x1 PUSH1 0x0 DUP1 MLOAD PUSH1 0x20 PUSH2 0x312E DUP4 CODECOPY DUP2 MLOAD SWAP2 MSTORE SSTORE JUMP JUMPDEST PUSH1 0x0 DUP2 DUP2 MSTORE PUSH1 0x2 PUSH1 0x20 SWAP1 DUP2 MSTORE PUSH1 0x40 SWAP2 DUP3 SWAP1 KECCAK256 DUP1 SLOAD DUP4 MLOAD DUP2 DUP5 MUL DUP2 ADD DUP5 ADD SWAP1 SWAP5 MSTORE DUP1 DUP5 MSTORE PUSH1 0x60 SWAP4 SWAP3 DUP4 ADD DUP3 DUP3 DUP1 ISZERO PUSH2 0x7DA JUMPI PUSH1 0x20 MUL DUP3 ADD SWAP2 SWAP1 PUSH1 0x0 MSTORE PUSH1 0x20 PUSH1 0x0 KECCAK256 SWAP1 JUMPDEST DUP2 SLOAD PUSH1 0x1 PUSH1 0x1 PUSH1 0xA0 SHL SUB AND DUP2 MSTORE PUSH1 0x1 SWAP1 SWAP2 ADD SWAP1 PUSH1 0x20 ADD DUP1 DUP4 GT PUSH2 0x187E JUMPI POP POP POP POP POP SWAP1 POP SWAP2 SWAP1 POP JUMP JUMPDEST PUSH1 0x0 DUP4 DUP2 MSTORE PUSH1 0x1 PUSH1 0x20 MSTORE PUSH1 0x40 SWAP1 KECCAK256 SLOAD DUP4 SWAP1 PUSH1 0x1 PUSH1 0x1 PUSH1 0xA0 SHL SUB AND CALLER EQ PUSH2 0x18DF JUMPI PUSH1 0x40 MLOAD PUSH3 0x461BCD PUSH1 0xE5 SHL DUP2 MSTORE PUSH1 0x4 ADD PUSH2 0x397 SWAP1 PUSH2 0x2E8E JUMP JUMPDEST PUSH1 0x0 DUP5 DUP2 MSTORE PUSH1 0x1 PUSH1 0x20 MSTORE PUSH1 0x40 SWAP1 KECCAK256 SLOAD DUP5 SWAP1 PUSH1 0x1 PUSH1 0x1 PUSH1 0xA0 SHL SUB AND PUSH2 0x1915 JUMPI PUSH1 0x40 MLOAD PUSH3 0x461BCD PUSH1 0xE5 SHL DUP2 MSTORE PUSH1 0x4 ADD PUSH2 0x397 SWAP1 PUSH2 0x2EB7 JUMP JUMPDEST DUP5 PUSH1 0x0 DUP1 DUP3 DUP2 MSTORE PUSH1 0x1 PUSH1 0x20 MSTORE PUSH1 0x40 SWAP1 KECCAK256 PUSH1 0x9 ADD SLOAD PUSH3 0x10000 SWAP1 DIV PUSH1 0xFF AND PUSH1 0x3 DUP2 GT ISZERO PUSH2 0x1943 JUMPI PUSH2 0x1943 PUSH2 0x2AC3 JUMP JUMPDEST EQ PUSH2 0x1960 JUMPI PUSH1 0x40 MLOAD PUSH3 0x461BCD PUSH1 0xE5 SHL DUP2 MSTORE PUSH1 0x4 ADD PUSH2 0x397 SWAP1 PUSH2 0x2EE5 JUMP JUMPDEST PUSH1 0x0 DUP7 DUP2 MSTORE PUSH1 0x1 PUSH1 0x20 MSTORE PUSH1 0x40 SWAP1 KECCAK256 PUSH1 0x2 PUSH1 0x3 DUP3 ADD SLOAD PUSH1 0xFF AND PUSH1 0x4 DUP2 GT ISZERO PUSH2 0x1989 JUMPI PUSH2 0x1989 PUSH2 0x2AC3 JUMP JUMPDEST EQ DUP1 PUSH2 0x19AC JUMPI POP PUSH1 0x3 DUP1 DUP3 ADD SLOAD PUSH1 0xFF AND PUSH1 0x4 DUP2 GT ISZERO PUSH2 0x19AA JUMPI PUSH2 0x19AA PUSH2 0x2AC3 JUMP JUMPDEST EQ JUMPDEST PUSH2 0x1A02 JUMPI PUSH1 0x40 MLOAD PUSH3 0x461BCD PUSH1 0xE5 SHL DUP2 MSTORE PUSH1 0x20 PUSH1 0x4 DUP3 ADD MSTORE PUSH1 0x21 PUSH1 0x24 DUP3 ADD MSTORE PUSH32 0x506163743A2072756C6520646F6573206E6F742075736520677561726469616E PUSH1 0x44 DUP3 ADD MSTORE PUSH1 0x73 PUSH1 0xF8 SHL PUSH1 0x64 DUP3 ADD MSTORE PUSH1 0x84 ADD PUSH2 0x397 JUMP JUMPDEST DUP5 ISZERO DUP1 ISZERO SWAP1 PUSH2 0x1A12 JUMPI POP PUSH1 0x5 DUP6 GT ISZERO JUMPDEST PUSH2 0x1A59 JUMPI PUSH1 0x40 MLOAD PUSH3 0x461BCD PUSH1 0xE5 SHL DUP2 MSTORE PUSH1 0x20 PUSH1 0x4 DUP3 ADD MSTORE PUSH1 0x18 PUSH1 0x24 DUP3 ADD MSTORE PUSH24 0x506163743A20312D3520677561726469616E73206F6E6C79 PUSH1 0x40 SHL PUSH1 0x44 DUP3 ADD MSTORE PUSH1 0x64 ADD PUSH2 0x397 JUMP JUMPDEST PUSH1 0x9 DUP2 ADD SLOAD PUSH1 0xFF AND ISZERO DUP1 ISZERO SWAP1 PUSH2 0x1A79 JUMPI POP PUSH1 0x9 DUP2 ADD SLOAD PUSH1 0xFF DUP1 DUP8 AND SWAP2 AND GT ISZERO JUMPDEST PUSH2 0x1AC5 JUMPI PUSH1 0x40 MLOAD PUSH3 0x461BCD PUSH1 0xE5 SHL DUP2 MSTORE PUSH1 0x20 PUSH1 0x4 DUP3 ADD MSTORE PUSH1 0x17 PUSH1 0x24 DUP3 ADD MSTORE PUSH32 0x506163743A20696E76616C6964207468726573686F6C64000000000000000000 PUSH1 0x44 DUP3 ADD MSTORE PUSH1 0x64 ADD PUSH2 0x397 JUMP JUMPDEST PUSH1 0x0 DUP8 DUP2 MSTORE PUSH1 0x2 PUSH1 0x20 MSTORE PUSH1 0x40 SWAP1 KECCAK256 SLOAD ISZERO PUSH2 0x1B3A JUMPI PUSH1 0x40 MLOAD PUSH3 0x461BCD PUSH1 0xE5 SHL DUP2 MSTORE PUSH1 0x20 PUSH1 0x4 DUP3 ADD MSTORE PUSH1 0x30 PUSH1 0x24 DUP3 ADD MSTORE PUSH32 0x506163743A20677561726469616E7320616C7265616479207365743B20757365 PUSH1 0x44 DUP3 ADD MSTORE PUSH16 0x20757064617465477561726469616E73 PUSH1 0x80 SHL PUSH1 0x64 DUP3 ADD MSTORE PUSH1 0x84 ADD PUSH2 0x397 JUMP JUMPDEST PUSH1 0x0 JUMPDEST DUP6 DUP2 LT ISZERO PUSH2 0x1D23 JUMPI PUSH1 0x0 DUP8 DUP8 DUP4 DUP2 DUP2 LT PUSH2 0x1B59 JUMPI PUSH2 0x1B59 PUSH2 0x2FBD JUMP JUMPDEST SWAP1 POP PUSH1 0x20 MUL ADD PUSH1 0x20 DUP2 ADD SWAP1 PUSH2 0x1B6E SWAP2 SWAP1 PUSH2 0x2A5D JUMP JUMPDEST SWAP1 POP PUSH1 0x1 PUSH1 0x1 PUSH1 0xA0 SHL SUB DUP2 AND PUSH2 0x1BC6 JUMPI PUSH1 0x40 MLOAD PUSH3 0x461BCD PUSH1 0xE5 SHL DUP2 MSTORE PUSH1 0x20 PUSH1 0x4 DUP3 ADD MSTORE PUSH1 0x1B PUSH1 0x24 DUP3 ADD MSTORE PUSH32 0x506163743A207A65726F206164647265737320677561726469616E0000000000 PUSH1 0x44 DUP3 ADD MSTORE PUSH1 0x64 ADD PUSH2 0x397 JUMP JUMPDEST CALLER PUSH1 0x1 PUSH1 0x1 PUSH1 0xA0 SHL SUB DUP3 AND SUB PUSH2 0x1C1E JUMPI PUSH1 0x40 MLOAD PUSH3 0x461BCD PUSH1 0xE5 SHL DUP2 MSTORE PUSH1 0x20 PUSH1 0x4 DUP3 ADD MSTORE PUSH1 0x1E PUSH1 0x24 DUP3 ADD MSTORE PUSH32 0x506163743A206F776E65722063616E6E6F7420626520677561726469616E0000 PUSH1 0x44 DUP3 ADD MSTORE PUSH1 0x64 ADD PUSH2 0x397 JUMP JUMPDEST PUSH1 0x0 DUP10 DUP2 MSTORE PUSH1 0x3 PUSH1 0x20 SWAP1 DUP2 MSTORE PUSH1 0x40 DUP1 DUP4 KECCAK256 PUSH1 0x1 PUSH1 0x1 PUSH1 0xA0 SHL SUB DUP6 AND DUP5 MSTORE SWAP1 SWAP2 MSTORE SWAP1 KECCAK256 SLOAD PUSH1 0xFF AND ISZERO PUSH2 0x1C8C JUMPI PUSH1 0x40 MLOAD PUSH3 0x461BCD PUSH1 0xE5 SHL DUP2 MSTORE PUSH1 0x20 PUSH1 0x4 DUP3 ADD MSTORE PUSH1 0x18 PUSH1 0x24 DUP3 ADD MSTORE PUSH24 0x2830B1BA1D10323AB83634B1B0BA329033BAB0B93234B0B7 PUSH1 0x41 SHL PUSH1 0x44 DUP3 ADD MSTORE PUSH1 0x64 ADD PUSH2 0x397 JUMP JUMPDEST PUSH1 0x0 DUP10 DUP2 MSTORE PUSH1 0x2 PUSH1 0x20 SWAP1 DUP2 MSTORE PUSH1 0x40 DUP1 DUP4 KECCAK256 DUP1 SLOAD PUSH1 0x1 DUP1 DUP3 ADD DUP4 SSTORE SWAP2 DUP6 MSTORE DUP4 DUP6 KECCAK256 ADD DUP1 SLOAD PUSH1 0x1 PUSH1 0x1 PUSH1 0xA0 SHL SUB NOT AND PUSH1 0x1 PUSH1 0x1 PUSH1 0xA0 SHL SUB DUP8 AND SWAP1 DUP2 OR SWAP1 SWAP2 SSTORE DUP14 DUP6 MSTORE PUSH1 0x3 DUP5 MSTORE DUP3 DUP6 KECCAK256 DUP2 DUP7 MSTORE SWAP1 SWAP4 MSTORE DUP2 DUP5 KECCAK256 DUP1 SLOAD PUSH1 0xFF NOT AND SWAP1 SWAP2 OR SWAP1 SSTORE MLOAD SWAP1 SWAP2 DUP12 SWAP2 PUSH32 0xED3A6CDBD975FD0C899136BF181B3ECBBBE340872BB479F15D138084EB5D2497 SWAP2 SWAP1 LOG3 POP DUP1 PUSH2 0x1D1B DUP2 PUSH2 0x2FD3 JUMP JUMPDEST SWAP2 POP POP PUSH2 0x1B3D JUMP JUMPDEST POP POP POP POP POP POP POP POP JUMP JUMPDEST PUSH1 0x0 DUP5 ISZERO DUP1 ISZERO SWAP1 PUSH2 0x1D3F JUMPI POP PUSH1 0x40 DUP6 GT ISZERO JUMPDEST PUSH2 0x1D8B JUMPI PUSH1 0x40 MLOAD PUSH3 0x461BCD PUSH1 0xE5 SHL DUP2 MSTORE PUSH1 0x20 PUSH1 0x4 DUP3 ADD MSTORE PUSH1 0x19 PUSH1 0x24 DUP3 ADD MSTORE PUSH32 0x506163743A20696E76616C6964206E616D65206C656E67746800000000000000 PUSH1 0x44 DUP3 ADD MSTORE PUSH1 0x64 ADD PUSH2 0x397 JUMP JUMPDEST PUSH2 0x400 DUP4 GT ISZERO PUSH2 0x1DD6 JUMPI PUSH1 0x40 MLOAD PUSH3 0x461BCD PUSH1 0xE5 SHL DUP2 MSTORE PUSH1 0x20 PUSH1 0x4 DUP3 ADD MSTORE PUSH1 0x16 PUSH1 0x24 DUP3 ADD MSTORE PUSH22 0x506163743A206D65737361676520746F6F206C6F6E67 PUSH1 0x50 SHL PUSH1 0x44 DUP3 ADD MSTORE PUSH1 0x64 ADD PUSH2 0x397 JUMP JUMPDEST PUSH2 0x1DE1 DUP10 DUP10 DUP10 PUSH2 0x2682 JUMP JUMPDEST PUSH1 0xFF DUP3 AND ISZERO PUSH2 0x1E77 JUMPI PUSH1 0x2 DUP10 PUSH1 0x4 DUP2 GT ISZERO PUSH2 0x1DFE JUMPI PUSH2 0x1DFE PUSH2 0x2AC3 JUMP JUMPDEST EQ DUP1 PUSH2 0x1E1B JUMPI POP PUSH1 0x3 DUP10 PUSH1 0x4 DUP2 GT ISZERO PUSH2 0x1E19 JUMPI PUSH2 0x1E19 PUSH2 0x2AC3 JUMP JUMPDEST EQ JUMPDEST PUSH2 0x1E77 JUMPI PUSH1 0x40 MLOAD PUSH3 0x461BCD PUSH1 0xE5 SHL DUP2 MSTORE PUSH1 0x20 PUSH1 0x4 DUP3 ADD MSTORE PUSH1 0x27 PUSH1 0x24 DUP3 ADD MSTORE PUSH32 0x506163743A207468726573686F6C64206F6E6C7920666F722067756172646961 PUSH1 0x44 DUP3 ADD MSTORE PUSH7 0x6E2072756C6573 PUSH1 0xC8 SHL PUSH1 0x64 DUP3 ADD MSTORE PUSH1 0x84 ADD PUSH2 0x397 JUMP JUMPDEST PUSH1 0x0 DUP1 SLOAD SWAP1 DUP1 PUSH2 0x1E86 DUP4 PUSH2 0x2FD3 JUMP JUMPDEST SWAP2 SWAP1 POP SSTORE POP PUSH1 0x0 DUP1 SLOAD SWAP1 POP PUSH1 0x40 MLOAD DUP1 PUSH2 0x180 ADD PUSH1 0x40 MSTORE DUP1 CALLER PUSH1 0x1 PUSH1 0x1 PUSH1 0xA0 SHL SUB AND DUP2 MSTORE PUSH1 0x20 ADD DUP13 PUSH1 0x1 PUSH1 0x1 PUSH1 0xA0 SHL SUB AND DUP2 MSTORE PUSH1 0x20 ADD PUSH1 0x0 DUP2 MSTORE PUSH1 0x20 ADD DUP12 PUSH1 0x4 DUP2 GT ISZERO PUSH2 0x1ED4 JUMPI PUSH2 0x1ED4 PUSH2 0x2AC3 JUMP JUMPDEST DUP2 MSTORE PUSH1 0x20 ADD DUP11 DUP11 DUP1 DUP1 PUSH1 0x1F ADD PUSH1 0x20 DUP1 SWAP2 DIV MUL PUSH1 0x20 ADD PUSH1 0x40 MLOAD SWAP1 DUP2 ADD PUSH1 0x40 MSTORE DUP1 SWAP4 SWAP3 SWAP2 SWAP1 DUP2 DUP2 MSTORE PUSH1 0x20 ADD DUP4 DUP4 DUP1 DUP3 DUP5 CALLDATACOPY PUSH1 0x0 SWAP3 ADD SWAP2 SWAP1 SWAP2 MSTORE POP POP POP SWAP1 DUP3 MSTORE POP PUSH1 0x40 DUP1 MLOAD PUSH1 0x20 PUSH1 0x1F DUP12 ADD DUP2 SWAP1 DIV DUP2 MUL DUP3 ADD DUP2 ADD SWAP1 SWAP3 MSTORE DUP10 DUP2 MSTORE SWAP2 DUP2 ADD SWAP2 SWAP1 DUP11 SWAP1 DUP11 SWAP1 DUP2 SWAP1 DUP5 ADD DUP4 DUP3 DUP1 DUP3 DUP5 CALLDATACOPY PUSH1 0x0 SWAP3 ADD SWAP2 SWAP1 SWAP2 MSTORE POP POP POP SWAP1 DUP3 MSTORE POP PUSH1 0x40 DUP1 MLOAD PUSH1 0x20 PUSH1 0x1F DUP10 ADD DUP2 SWAP1 DIV DUP2 MUL DUP3 ADD DUP2 ADD SWAP1 SWAP3 MSTORE DUP8 DUP2 MSTORE SWAP2 DUP2 ADD SWAP2 SWAP1 DUP9 SWAP1 DUP9 SWAP1 DUP2 SWAP1 DUP5 ADD DUP4 DUP3 DUP1 DUP3 DUP5 CALLDATACOPY PUSH1 0x0 SWAP3 ADD DUP3 SWAP1 MSTORE POP SWAP4 DUP6 MSTORE POP POP TIMESTAMP PUSH1 0x20 DUP5 ADD MSTORE POP PUSH1 0x40 DUP3 ADD DUP2 SWAP1 MSTORE PUSH1 0xFF DUP7 AND PUSH1 0x60 DUP4 ADD MSTORE PUSH1 0x80 DUP3 ADD DUP2 SWAP1 MSTORE PUSH1 0xA0 SWAP1 SWAP2 ADD MSTORE PUSH1 0x0 DUP3 DUP2 MSTORE PUSH1 0x1 PUSH1 0x20 DUP2 DUP2 MSTORE PUSH1 0x40 SWAP3 DUP4 SWAP1 KECCAK256 DUP5 MLOAD DUP2 SLOAD PUSH1 0x1 PUSH1 0x1 PUSH1 0xA0 SHL SUB NOT SWAP1 DUP2 AND PUSH1 0x1 PUSH1 0x1 PUSH1 0xA0 SHL SUB SWAP3 DUP4 AND OR DUP4 SSTORE SWAP3 DUP7 ADD MLOAD DUP3 DUP6 ADD DUP1 SLOAD SWAP1 SWAP5 AND SWAP2 AND OR SWAP1 SWAP2 SSTORE SWAP2 DUP4 ADD MLOAD PUSH1 0x2 DUP4 ADD SSTORE PUSH1 0x60 DUP4 ADD MLOAD PUSH1 0x3 DUP4 ADD DUP1 SLOAD SWAP2 SWAP3 SWAP1 SWAP2 PUSH1 0xFF NOT AND SWAP1 DUP4 PUSH1 0x4 DUP2 GT ISZERO PUSH2 0x201B JUMPI PUSH2 0x201B PUSH2 0x2AC3 JUMP JUMPDEST MUL OR SWAP1 SSTORE POP PUSH1 0x80 DUP3 ADD MLOAD PUSH1 0x4 DUP3 ADD SWAP1 PUSH2 0x2034 SWAP1 DUP3 PUSH2 0x3050 JUMP JUMPDEST POP PUSH1 0xA0 DUP3 ADD MLOAD PUSH1 0x5 DUP3 ADD SWAP1 PUSH2 0x2049 SWAP1 DUP3 PUSH2 0x3050 JUMP JUMPDEST POP PUSH1 0xC0 DUP3 ADD MLOAD PUSH1 0x6 DUP3 ADD SWAP1 PUSH2 0x205E SWAP1 DUP3 PUSH2 0x3050 JUMP JUMPDEST POP PUSH1 0xE0 DUP3 ADD MLOAD PUSH1 0x7 DUP3 ADD SSTORE PUSH2 0x100 DUP1 DUP4 ADD MLOAD PUSH1 0x8 DUP4 ADD SSTORE PUSH2 0x120 DUP4 ADD MLOAD PUSH1 0x9 DUP4 ADD DUP1 SLOAD PUSH2 0x140 DUP7 ADD MLOAD PUSH1 0xFF SWAP4 DUP5 AND PUSH2 0xFFFF NOT SWAP1 SWAP3 AND SWAP2 SWAP1 SWAP2 OR SWAP3 AND SWAP1 SWAP3 MUL OR DUP1 DUP3 SSTORE PUSH2 0x160 DUP5 ADD MLOAD SWAP2 SWAP1 PUSH3 0xFF0000 NOT AND PUSH3 0x10000 DUP4 PUSH1 0x3 DUP2 GT ISZERO PUSH2 0x20C4 JUMPI PUSH2 0x20C4 PUSH2 0x2AC3 JUMP JUMPDEST MUL OR SWAP1 SSTORE POP POP CALLER PUSH1 0x0 DUP2 DUP2 MSTORE PUSH1 0x5 PUSH1 0x20 SWAP1 DUP2 MSTORE PUSH1 0x40 DUP1 DUP4 KECCAK256 DUP1 SLOAD PUSH1 0x1 DUP2 ADD DUP3 SSTORE SWAP1 DUP5 MSTORE SWAP2 SWAP1 SWAP3 KECCAK256 ADD DUP5 SWAP1 SSTORE MLOAD SWAP1 SWAP2 POP DUP3 SWAP1 PUSH32 0xDB25EC6FD08BBBB6A5D9F1575668949DFB50B3FF60D43BD5CFCCA7FA9722A02C SWAP1 PUSH2 0x2124 SWAP1 DUP16 SWAP1 DUP16 SWAP1 PUSH2 0x3110 JUMP JUMPDEST PUSH1 0x40 MLOAD DUP1 SWAP2 SUB SWAP1 LOG3 SWAP11 SWAP10 POP POP POP POP POP POP POP POP POP POP JUMP JUMPDEST PUSH2 0x2142 PUSH2 0x28EC JUMP JUMPDEST PUSH1 0x2 PUSH1 0x0 DUP1 MLOAD PUSH1 0x20 PUSH2 0x312E DUP4 CODECOPY DUP2 MLOAD SWAP2 MSTORE SSTORE JUMP JUMPDEST PUSH1 0x3 DUP2 ADD SLOAD PUSH1 0xFF AND PUSH1 0x0 DUP2 PUSH1 0x4 DUP2 GT ISZERO PUSH2 0x2172 JUMPI PUSH2 0x2172 PUSH2 0x2AC3 JUMP JUMPDEST SUB PUSH2 0x2271 JUMPI PUSH1 0x0 DUP3 PUSH1 0x4 ADD DUP1 SLOAD PUSH2 0x2188 SWAP1 PUSH2 0x2F57 JUMP JUMPDEST DUP1 PUSH1 0x1F ADD PUSH1 0x20 DUP1 SWAP2 DIV MUL PUSH1 0x20 ADD PUSH1 0x40 MLOAD SWAP1 DUP2 ADD PUSH1 0x40 MSTORE DUP1 SWAP3 SWAP2 SWAP1 DUP2 DUP2 MSTORE PUSH1 0x20 ADD DUP3 DUP1 SLOAD PUSH2 0x21B4 SWAP1 PUSH2 0x2F57 JUMP JUMPDEST DUP1 ISZERO PUSH2 0x2201 JUMPI DUP1 PUSH1 0x1F LT PUSH2 0x21D6 JUMPI PUSH2 0x100 DUP1 DUP4 SLOAD DIV MUL DUP4 MSTORE SWAP2 PUSH1 0x20 ADD SWAP2 PUSH2 0x2201 JUMP JUMPDEST DUP3 ADD SWAP2 SWAP1 PUSH1 0x0 MSTORE PUSH1 0x20 PUSH1 0x0 KECCAK256 SWAP1 JUMPDEST DUP2 SLOAD DUP2 MSTORE SWAP1 PUSH1 0x1 ADD SWAP1 PUSH1 0x20 ADD DUP1 DUP4 GT PUSH2 0x21E4 JUMPI DUP3 SWAP1 SUB PUSH1 0x1F AND DUP3 ADD SWAP2 JUMPDEST POP POP POP POP POP DUP1 PUSH1 0x20 ADD SWAP1 MLOAD DUP2 ADD SWAP1 PUSH2 0x2219 SWAP2 SWAP1 PUSH2 0x2F91 JUMP JUMPDEST SWAP1 POP DUP1 TIMESTAMP LT ISZERO PUSH2 0x226B JUMPI PUSH1 0x40 MLOAD PUSH3 0x461BCD PUSH1 0xE5 SHL DUP2 MSTORE PUSH1 0x20 PUSH1 0x4 DUP3 ADD MSTORE PUSH1 0x1B PUSH1 0x24 DUP3 ADD MSTORE PUSH32 0x506163743A2074696D65206C6F636B206E6F7420657870697265640000000000 PUSH1 0x44 DUP3 ADD MSTORE PUSH1 0x64 ADD PUSH2 0x397 JUMP JUMPDEST POP POP POP POP JUMP JUMPDEST PUSH1 0x1 DUP2 PUSH1 0x4 DUP2 GT ISZERO PUSH2 0x2285 JUMPI PUSH2 0x2285 PUSH2 0x2AC3 JUMP JUMPDEST SUB PUSH2 0x23F8 JUMPI PUSH1 0x0 DUP3 PUSH1 0x8 ADD SLOAD GT PUSH2 0x22EA JUMPI PUSH1 0x40 MLOAD PUSH3 0x461BCD PUSH1 0xE5 SHL DUP2 MSTORE PUSH1 0x20 PUSH1 0x4 DUP3 ADD MSTORE PUSH1 0x24 DUP1 DUP3 ADD MSTORE PUSH32 0x506163743A206D7573742063616C6C207265717565737452656C656173652066 PUSH1 0x44 DUP3 ADD MSTORE PUSH4 0x1A5C9CDD PUSH1 0xE2 SHL PUSH1 0x64 DUP3 ADD MSTORE PUSH1 0x84 ADD PUSH2 0x397 JUMP JUMPDEST PUSH1 0x0 DUP3 PUSH1 0x4 ADD DUP1 SLOAD PUSH2 0x22FB SWAP1 PUSH2 0x2F57 JUMP JUMPDEST DUP1 PUSH1 0x1F ADD PUSH1 0x20 DUP1 SWAP2 DIV MUL PUSH1 0x20 ADD PUSH1 0x40 MLOAD SWAP1 DUP2 ADD PUSH1 0x40 MSTORE DUP1 SWAP3 SWAP2 SWAP1 DUP2 DUP2 MSTORE PUSH1 0x20 ADD DUP3 DUP1 SLOAD PUSH2 0x2327 SWAP1 PUSH2 0x2F57 JUMP JUMPDEST DUP1 ISZERO PUSH2 0x2374 JUMPI DUP1 PUSH1 0x1F LT PUSH2 0x2349 JUMPI PUSH2 0x100 DUP1 DUP4 SLOAD DIV MUL DUP4 MSTORE SWAP2 PUSH1 0x20 ADD SWAP2 PUSH2 0x2374 JUMP JUMPDEST DUP3 ADD SWAP2 SWAP1 PUSH1 0x0 MSTORE PUSH1 0x20 PUSH1 0x0 KECCAK256 SWAP1 JUMPDEST DUP2 SLOAD DUP2 MSTORE SWAP1 PUSH1 0x1 ADD SWAP1 PUSH1 0x20 ADD DUP1 DUP4 GT PUSH2 0x2357 JUMPI DUP3 SWAP1 SUB PUSH1 0x1F AND DUP3 ADD SWAP2 JUMPDEST POP POP POP POP POP DUP1 PUSH1 0x20 ADD SWAP1 MLOAD DUP2 ADD SWAP1 PUSH2 0x238C SWAP2 SWAP1 PUSH2 0x2F91 JUMP JUMPDEST SWAP1 POP DUP1 DUP4 PUSH1 0x8 ADD SLOAD PUSH2 0x239E SWAP2 SWAP1 PUSH2 0x2F44 JUMP JUMPDEST TIMESTAMP LT ISZERO PUSH2 0x226B JUMPI PUSH1 0x40 MLOAD PUSH3 0x461BCD PUSH1 0xE5 SHL DUP2 MSTORE PUSH1 0x20 PUSH1 0x4 DUP3 ADD MSTORE PUSH1 0x22 PUSH1 0x24 DUP3 ADD MSTORE PUSH32 0x506163743A20636F6F6C646F776E20706572696F64206E6F7420636F6D706C65 PUSH1 0x44 DUP3 ADD MSTORE PUSH2 0x7465 PUSH1 0xF0 SHL PUSH1 0x64 DUP3 ADD MSTORE PUSH1 0x84 ADD PUSH2 0x397 JUMP JUMPDEST PUSH1 0x2 DUP2 PUSH1 0x4 DUP2 GT ISZERO PUSH2 0x240C JUMPI PUSH2 0x240C PUSH2 0x2AC3 JUMP JUMPDEST EQ DUP1 PUSH2 0x2429 JUMPI POP PUSH1 0x3 DUP2 PUSH1 0x4 DUP2 GT ISZERO PUSH2 0x2427 JUMPI PUSH2 0x2427 PUSH2 0x2AC3 JUMP JUMPDEST EQ JUMPDEST ISZERO PUSH2 0x24FB JUMPI PUSH1 0x0 DUP4 DUP2 MSTORE PUSH1 0x2 PUSH1 0x20 MSTORE PUSH1 0x40 SWAP1 KECCAK256 SLOAD PUSH2 0x2489 JUMPI PUSH1 0x40 MLOAD PUSH3 0x461BCD PUSH1 0xE5 SHL DUP2 MSTORE PUSH1 0x20 PUSH1 0x4 DUP3 ADD MSTORE PUSH1 0x1B PUSH1 0x24 DUP3 ADD MSTORE PUSH32 0x506163743A206E6F20677561726469616E732061737369676E65640000000000 PUSH1 0x44 DUP3 ADD MSTORE PUSH1 0x64 ADD PUSH2 0x397 JUMP JUMPDEST PUSH1 0x9 DUP3 ADD SLOAD PUSH1 0xFF DUP1 DUP3 AND PUSH2 0x100 SWAP1 SWAP3 DIV AND LT ISZERO PUSH2 0x24F6 JUMPI PUSH1 0x40 MLOAD PUSH3 0x461BCD PUSH1 0xE5 SHL DUP2 MSTORE PUSH1 0x20 PUSH1 0x4 DUP3 ADD MSTORE PUSH1 0x25 PUSH1 0x24 DUP3 ADD MSTORE PUSH32 0x506163743A20696E73756666696369656E7420677561726469616E2061707072 PUSH1 0x44 DUP3 ADD MSTORE PUSH5 0x6F76616C73 PUSH1 0xD8 SHL PUSH1 0x64 DUP3 ADD MSTORE PUSH1 0x84 ADD PUSH2 0x397 JUMP JUMPDEST POP POP POP JUMP JUMPDEST PUSH1 0x4 DUP2 PUSH1 0x4 DUP2 GT ISZERO PUSH2 0x250F JUMPI PUSH2 0x250F PUSH2 0x2AC3 JUMP JUMPDEST SUB PUSH2 0x24F6 JUMPI PUSH1 0x0 DUP3 PUSH1 0x4 ADD DUP1 SLOAD PUSH2 0x2525 SWAP1 PUSH2 0x2F57 JUMP JUMPDEST DUP1 PUSH1 0x1F ADD PUSH1 0x20 DUP1 SWAP2 DIV MUL PUSH1 0x20 ADD PUSH1 0x40 MLOAD SWAP1 DUP2 ADD PUSH1 0x40 MSTORE DUP1 SWAP3 SWAP2 SWAP1 DUP2 DUP2 MSTORE PUSH1 0x20 ADD DUP3 DUP1 SLOAD PUSH2 0x2551 SWAP1 PUSH2 0x2F57 JUMP JUMPDEST DUP1 ISZERO PUSH2 0x259E JUMPI DUP1 PUSH1 0x1F LT PUSH2 0x2573 JUMPI PUSH2 0x100 DUP1 DUP4 SLOAD DIV MUL DUP4 MSTORE SWAP2 PUSH1 0x20 ADD SWAP2 PUSH2 0x259E JUMP JUMPDEST DUP3 ADD SWAP2 SWAP1 PUSH1 0x0 MSTORE PUSH1 0x20 PUSH1 0x0 KECCAK256 SWAP1 JUMPDEST DUP2 SLOAD DUP2 MSTORE SWAP1 PUSH1 0x1 ADD SWAP1 PUSH1 0x20 ADD DUP1 DUP4 GT PUSH2 0x2581 JUMPI DUP3 SWAP1 SUB PUSH1 0x1F AND DUP3 ADD SWAP2 JUMPDEST POP POP POP POP POP DUP1 PUSH1 0x20 ADD SWAP1 MLOAD DUP2 ADD SWAP1 PUSH2 0x25B6 SWAP2 SWAP1 PUSH2 0x2F91 JUMP JUMPDEST SWAP1 POP DUP1 DUP4 PUSH1 0x2 ADD SLOAD LT ISZERO PUSH2 0x226B JUMPI PUSH1 0x40 MLOAD PUSH3 0x461BCD PUSH1 0xE5 SHL DUP2 MSTORE PUSH1 0x20 PUSH1 0x4 DUP3 ADD MSTORE PUSH1 0x22 PUSH1 0x24 DUP3 ADD MSTORE PUSH32 0x506163743A20736176696E677320676F616C206E6F7420796574207265616368 PUSH1 0x44 DUP3 ADD MSTORE PUSH2 0x1959 PUSH1 0xF2 SHL PUSH1 0x64 DUP3 ADD MSTORE PUSH1 0x84 ADD PUSH2 0x397 JUMP JUMPDEST PUSH2 0x2624 DUP4 DUP4 DUP4 PUSH1 0x1 PUSH2 0x291E JUMP JUMPDEST PUSH2 0x24F6 JUMPI PUSH1 0x40 MLOAD PUSH4 0x5274AFE7 PUSH1 0xE0 SHL DUP2 MSTORE PUSH1 0x1 PUSH1 0x1 PUSH1 0xA0 SHL SUB DUP5 AND PUSH1 0x4 DUP3 ADD MSTORE PUSH1 0x24 ADD PUSH2 0x397 JUMP JUMPDEST PUSH2 0x265A DUP5 DUP5 DUP5 DUP5 PUSH1 0x1 PUSH2 0x2984 JUMP JUMPDEST PUSH2 0x226B JUMPI PUSH1 0x40 MLOAD PUSH4 0x5274AFE7 PUSH1 0xE0 SHL DUP2 MSTORE PUSH1 0x1 PUSH1 0x1 PUSH1 0xA0 SHL SUB DUP6 AND PUSH1 0x4 DUP3 ADD MSTORE PUSH1 0x24 ADD PUSH2 0x397 JUMP JUMPDEST PUSH1 0x0 DUP4 PUSH1 0x4 DUP2 GT ISZERO PUSH2 0x2696 JUMPI PUSH2 0x2696 PUSH2 0x2AC3 JUMP JUMPDEST SUB PUSH2 0x274A JUMPI PUSH1 0x20 DUP2 EQ PUSH2 0x26EB JUMPI PUSH1 0x40 MLOAD PUSH3 0x461BCD PUSH1 0xE5 SHL DUP2 MSTORE PUSH1 0x20 PUSH1 0x4 DUP3 ADD MSTORE PUSH1 0x1D PUSH1 0x24 DUP3 ADD MSTORE PUSH32 0x506163743A20696E76616C69642054696D654C6F636B20706172616D73000000 PUSH1 0x44 DUP3 ADD MSTORE PUSH1 0x64 ADD PUSH2 0x397 JUMP JUMPDEST PUSH1 0x0 PUSH2 0x26F9 DUP3 DUP5 ADD DUP5 PUSH2 0x2A28 JUMP JUMPDEST SWAP1 POP TIMESTAMP DUP2 GT PUSH2 0x226B JUMPI PUSH1 0x40 MLOAD PUSH3 0x461BCD PUSH1 0xE5 SHL DUP2 MSTORE PUSH1 0x20 PUSH1 0x4 DUP3 ADD DUP2 SWAP1 MSTORE PUSH1 0x24 DUP3 ADD MSTORE PUSH32 0x506163743A20756E6C6F636B2074696D65206D75737420626520667574757265 PUSH1 0x44 DUP3 ADD MSTORE PUSH1 0x64 ADD PUSH2 0x397 JUMP JUMPDEST PUSH1 0x1 DUP4 PUSH1 0x4 DUP2 GT ISZERO PUSH2 0x275E JUMPI PUSH2 0x275E PUSH2 0x2AC3 JUMP JUMPDEST SUB PUSH2 0x2823 JUMPI PUSH1 0x20 DUP2 EQ PUSH2 0x27B3 JUMPI PUSH1 0x40 MLOAD PUSH3 0x461BCD PUSH1 0xE5 SHL DUP2 MSTORE PUSH1 0x20 PUSH1 0x4 DUP3 ADD MSTORE PUSH1 0x1D PUSH1 0x24 DUP3 ADD MSTORE PUSH32 0x506163743A20696E76616C696420436F6F6C646F776E20706172616D73000000 PUSH1 0x44 DUP3 ADD MSTORE PUSH1 0x64 ADD PUSH2 0x397 JUMP JUMPDEST PUSH1 0x0 PUSH2 0x27C1 DUP3 DUP5 ADD DUP5 PUSH2 0x2A28 JUMP JUMPDEST SWAP1 POP PUSH1 0x0 DUP2 GT DUP1 ISZERO PUSH2 0x27D7 JUMPI POP PUSH4 0x1E13380 DUP2 GT ISZERO JUMPDEST PUSH2 0x226B JUMPI PUSH1 0x40 MLOAD PUSH3 0x461BCD PUSH1 0xE5 SHL DUP2 MSTORE PUSH1 0x20 PUSH1 0x4 DUP3 ADD MSTORE PUSH1 0x1B PUSH1 0x24 DUP3 ADD MSTORE PUSH32 0x506163743A20636F6F6C646F776E206F7574206F662072616E67650000000000 PUSH1 0x44 DUP3 ADD MSTORE PUSH1 0x64 ADD PUSH2 0x397 JUMP JUMPDEST PUSH1 0x4 DUP4 PUSH1 0x4 DUP2 GT ISZERO PUSH2 0x2837 JUMPI PUSH2 0x2837 PUSH2 0x2AC3 JUMP JUMPDEST SUB PUSH2 0x24F6 JUMPI PUSH1 0x20 DUP2 EQ PUSH2 0x288C JUMPI PUSH1 0x40 MLOAD PUSH3 0x461BCD PUSH1 0xE5 SHL DUP2 MSTORE PUSH1 0x20 PUSH1 0x4 DUP3 ADD DUP2 SWAP1 MSTORE PUSH1 0x24 DUP3 ADD MSTORE PUSH32 0x506163743A20696E76616C696420536176696E6773476F616C20706172616D73 PUSH1 0x44 DUP3 ADD MSTORE PUSH1 0x64 ADD PUSH2 0x397 JUMP JUMPDEST PUSH1 0x0 PUSH2 0x289A DUP3 DUP5 ADD DUP5 PUSH2 0x2A28 JUMP JUMPDEST SWAP1 POP PUSH1 0x0 DUP2 GT PUSH2 0x226B JUMPI PUSH1 0x40 MLOAD PUSH3 0x461BCD PUSH1 0xE5 SHL DUP2 MSTORE PUSH1 0x20 PUSH1 0x4 DUP3 ADD MSTORE PUSH1 0x1E PUSH1 0x24 DUP3 ADD MSTORE PUSH32 0x506163743A20736176696E677320676F616C206D757374206265203E20300000 PUSH1 0x44 DUP3 ADD MSTORE PUSH1 0x64 ADD PUSH2 0x397 JUMP JUMPDEST PUSH1 0x0 DUP1 MLOAD PUSH1 0x20 PUSH2 0x312E DUP4 CODECOPY DUP2 MLOAD SWAP2 MSTORE SLOAD PUSH1 0x2 SUB PUSH2 0x291C JUMPI PUSH1 0x40 MLOAD PUSH4 0x3EE5AEB5 PUSH1 0xE0 SHL DUP2 MSTORE PUSH1 0x4 ADD PUSH1 0x40 MLOAD DUP1 SWAP2 SUB SWAP1 REVERT JUMPDEST JUMP JUMPDEST PUSH1 0x40 MLOAD PUSH4 0xA9059CBB PUSH1 0xE0 SHL PUSH1 0x0 DUP2 DUP2 MSTORE PUSH1 0x1 PUSH1 0x1 PUSH1 0xA0 SHL SUB DUP7 AND PUSH1 0x4 MSTORE PUSH1 0x24 DUP6 SWAP1 MSTORE SWAP2 PUSH1 0x20 DUP4 PUSH1 0x44 DUP2 DUP1 DUP12 GAS CALL SWAP3 POP PUSH1 0x1 PUSH1 0x0 MLOAD EQ DUP4 AND PUSH2 0x2978 JUMPI DUP4 DUP4 ISZERO AND ISZERO PUSH2 0x296B JUMPI RETURNDATASIZE PUSH1 0x0 DUP3 RETURNDATACOPY RETURNDATASIZE DUP2 REVERT JUMPDEST PUSH1 0x0 DUP8 EXTCODESIZE GT RETURNDATASIZE ISZERO AND DUP4 AND SWAP3 POP JUMPDEST PUSH1 0x40 MSTORE POP SWAP5 SWAP4 POP POP POP POP JUMP JUMPDEST PUSH1 0x40 MLOAD PUSH4 0x23B872DD PUSH1 0xE0 SHL PUSH1 0x0 DUP2 DUP2 MSTORE PUSH1 0x1 PUSH1 0x1 PUSH1 0xA0 SHL SUB DUP8 DUP2 AND PUSH1 0x4 MSTORE DUP7 AND PUSH1 0x24 MSTORE PUSH1 0x44 DUP6 SWAP1 MSTORE SWAP2 PUSH1 0x20 DUP4 PUSH1 0x64 DUP2 DUP1 DUP13 GAS CALL SWAP3 POP PUSH1 0x1 PUSH1 0x0 MLOAD EQ DUP4 AND PUSH2 0x29E4 JUMPI DUP4 DUP4 ISZERO AND ISZERO PUSH2 0x29D7 JUMPI RETURNDATASIZE PUSH1 0x0 DUP3 RETURNDATACOPY RETURNDATASIZE DUP2 REVERT JUMPDEST PUSH1 0x0 DUP9 EXTCODESIZE GT RETURNDATASIZE ISZERO AND DUP4 AND SWAP3 POP JUMPDEST PUSH1 0x40 MSTORE POP PUSH1 0x0 PUSH1 0x60 MSTORE SWAP6 SWAP5 POP POP POP POP POP JUMP JUMPDEST POP DUP1 SLOAD PUSH1 0x0 DUP3 SSTORE SWAP1 PUSH1 0x0 MSTORE PUSH1 0x20 PUSH1 0x0 KECCAK256 SWAP1 DUP2 ADD SWAP1 PUSH2 0xAE7 SWAP2 SWAP1 JUMPDEST DUP1 DUP3 GT ISZERO PUSH2 0x2A24 JUMPI PUSH1 0x0 DUP2 SSTORE PUSH1 0x1 ADD PUSH2 0x2A10 JUMP JUMPDEST POP SWAP1 JUMP JUMPDEST PUSH1 0x0 PUSH1 0x20 DUP3 DUP5 SUB SLT ISZERO PUSH2 0x2A3A JUMPI PUSH1 0x0 DUP1 REVERT JUMPDEST POP CALLDATALOAD SWAP2 SWAP1 POP JUMP JUMPDEST DUP1 CALLDATALOAD PUSH1 0x1 PUSH1 0x1 PUSH1 0xA0 SHL SUB DUP2 AND DUP2 EQ PUSH2 0x2A58 JUMPI PUSH1 0x0 DUP1 REVERT JUMPDEST SWAP2 SWAP1 POP JUMP JUMPDEST PUSH1 0x0 PUSH1 0x20 DUP3 DUP5 SUB SLT ISZERO PUSH2 0x2A6F JUMPI PUSH1 0x0 DUP1 REVERT JUMPDEST PUSH2 0x2A78 DUP3 PUSH2 0x2A41 JUMP JUMPDEST SWAP4 SWAP3 POP POP POP JUMP JUMPDEST PUSH1 0x20 DUP1 DUP3 MSTORE DUP3 MLOAD DUP3 DUP3 ADD DUP2 SWAP1 MSTORE PUSH1 0x0 SWAP2 SWAP1 DUP5 DUP3 ADD SWAP1 PUSH1 0x40 DUP6 ADD SWAP1 DUP5 JUMPDEST DUP2 DUP2 LT ISZERO PUSH2 0x2AB7 JUMPI DUP4 MLOAD DUP4 MSTORE SWAP3 DUP5 ADD SWAP3 SWAP2 DUP5 ADD SWAP2 PUSH1 0x1 ADD PUSH2 0x2A9B JUMP JUMPDEST POP SWAP1 SWAP7 SWAP6 POP POP POP POP POP POP JUMP JUMPDEST PUSH4 0x4E487B71 PUSH1 0xE0 SHL PUSH1 0x0 MSTORE PUSH1 0x21 PUSH1 0x4 MSTORE PUSH1 0x24 PUSH1 0x0 REVERT JUMPDEST PUSH1 0x5 DUP2 LT PUSH2 0x2AE9 JUMPI PUSH2 0x2AE9 PUSH2 0x2AC3 JUMP JUMPDEST SWAP1 MSTORE JUMP JUMPDEST PUSH1 0x0 DUP2 MLOAD DUP1 DUP5 MSTORE PUSH1 0x0 JUMPDEST DUP2 DUP2 LT ISZERO PUSH2 0x2B13 JUMPI PUSH1 0x20 DUP2 DUP6 ADD DUP2 ADD MLOAD DUP7 DUP4 ADD DUP3 ADD MSTORE ADD PUSH2 0x2AF7 JUMP JUMPDEST POP PUSH1 0x0 PUSH1 0x20 DUP3 DUP7 ADD ADD MSTORE PUSH1 0x20 PUSH1 0x1F NOT PUSH1 0x1F DUP4 ADD AND DUP6 ADD ADD SWAP2 POP POP SWAP3 SWAP2 POP POP JUMP JUMPDEST PUSH1 0x4 DUP2 LT PUSH2 0x2AE9 JUMPI PUSH2 0x2AE9 PUSH2 0x2AC3 JUMP JUMPDEST PUSH1 0x20 DUP2 MSTORE PUSH2 0x2B5D PUSH1 0x20 DUP3 ADD DUP4 MLOAD PUSH1 0x1 PUSH1 0x1 PUSH1 0xA0 SHL SUB AND SWAP1 MSTORE JUMP JUMPDEST PUSH1 0x0 PUSH1 0x20 DUP4 ADD MLOAD PUSH2 0x2B79 PUSH1 0x40 DUP5 ADD DUP3 PUSH1 0x1 PUSH1 0x1 PUSH1 0xA0 SHL SUB AND SWAP1 MSTORE JUMP JUMPDEST POP PUSH1 0x40 DUP4 ADD MLOAD PUSH1 0x60 DUP4 ADD MSTORE PUSH1 0x60 DUP4 ADD MLOAD PUSH2 0x2B96 PUSH1 0x80 DUP5 ADD DUP3 PUSH2 0x2AD9 JUMP JUMPDEST POP PUSH1 0x80 DUP4 ADD MLOAD PUSH2 0x180 DUP1 PUSH1 0xA0 DUP6 ADD MSTORE PUSH2 0x2BB3 PUSH2 0x1A0 DUP6 ADD DUP4 PUSH2 0x2AED JUMP JUMPDEST SWAP2 POP PUSH1 0xA0 DUP6 ADD MLOAD PUSH1 0x1F NOT DUP1 DUP7 DUP6 SUB ADD PUSH1 0xC0 DUP8 ADD MSTORE PUSH2 0x2BD1 DUP5 DUP4 PUSH2 0x2AED JUMP JUMPDEST SWAP4 POP PUSH1 0xC0 DUP8 ADD MLOAD SWAP2 POP DUP1 DUP7 DUP6 SUB ADD PUSH1 0xE0 DUP8 ADD MSTORE POP PUSH2 0x2BEF DUP4 DUP3 PUSH2 0x2AED JUMP JUMPDEST PUSH1 0xE0 DUP8 ADD MLOAD PUSH2 0x100 DUP8 DUP2 ADD SWAP2 SWAP1 SWAP2 MSTORE DUP8 ADD MLOAD PUSH2 0x120 DUP1 DUP9 ADD SWAP2 SWAP1 SWAP2 MSTORE DUP8 ADD MLOAD SWAP1 SWAP4 POP SWAP1 POP PUSH2 0x140 PUSH2 0x2C24 DUP2 DUP8 ADD DUP4 PUSH1 0xFF AND SWAP1 MSTORE JUMP JUMPDEST DUP7 ADD MLOAD SWAP1 POP PUSH2 0x160 PUSH2 0x2C3A DUP7 DUP3 ADD DUP4 PUSH1 0xFF AND SWAP1 MSTORE JUMP JUMPDEST DUP7 ADD MLOAD SWAP1 POP PUSH2 0x2C4B DUP6 DUP4 ADD DUP3 PUSH2 0x2B33 JUMP JUMPDEST POP SWAP1 SWAP5 SWAP4 POP POP POP POP JUMP JUMPDEST PUSH1 0x0 DUP1 PUSH1 0x40 DUP4 DUP6 SUB SLT ISZERO PUSH2 0x2C68 JUMPI PUSH1 0x0 DUP1 REVERT JUMPDEST POP POP DUP1 CALLDATALOAD SWAP3 PUSH1 0x20 SWAP1 SWAP2 ADD CALLDATALOAD SWAP2 POP JUMP JUMPDEST PUSH1 0x0 DUP1 PUSH1 0x40 DUP4 DUP6 SUB SLT ISZERO PUSH2 0x2C8A JUMPI PUSH1 0x0 DUP1 REVERT JUMPDEST DUP3 CALLDATALOAD SWAP2 POP PUSH2 0x2C9A PUSH1 0x20 DUP5 ADD PUSH2 0x2A41 JUMP JUMPDEST SWAP1 POP SWAP3 POP SWAP3 SWAP1 POP JUMP JUMPDEST PUSH1 0x0 DUP1 PUSH1 0x0 PUSH1 0x40 DUP5 DUP7 SUB SLT ISZERO PUSH2 0x2CB8 JUMPI PUSH1 0x0 DUP1 REVERT JUMPDEST DUP4 CALLDATALOAD SWAP3 POP PUSH1 0x20 DUP5 ADD CALLDATALOAD PUSH8 0xFFFFFFFFFFFFFFFF DUP1 DUP3 GT ISZERO PUSH2 0x2CD7 JUMPI PUSH1 0x0 DUP1 REVERT JUMPDEST DUP2 DUP7 ADD SWAP2 POP DUP7 PUSH1 0x1F DUP4 ADD SLT PUSH2 0x2CEB JUMPI PUSH1 0x0 DUP1 REVERT JUMPDEST DUP2 CALLDATALOAD DUP2 DUP2 GT ISZERO PUSH2 0x2CFA JUMPI PUSH1 0x0 DUP1 REVERT JUMPDEST DUP8 PUSH1 0x20 DUP3 PUSH1 0x5 SHL DUP6 ADD ADD GT ISZERO PUSH2 0x2D0F JUMPI PUSH1 0x0 DUP1 REVERT JUMPDEST PUSH1 0x20 DUP4 ADD SWAP5 POP DUP1 SWAP4 POP POP POP POP SWAP3 POP SWAP3 POP SWAP3 JUMP JUMPDEST PUSH1 0x20 DUP1 DUP3 MSTORE DUP3 MLOAD DUP3 DUP3 ADD DUP2 SWAP1 MSTORE PUSH1 0x0 SWAP2 SWAP1 DUP5 DUP3 ADD SWAP1 PUSH1 0x40 DUP6 ADD SWAP1 DUP5 JUMPDEST DUP2 DUP2 LT ISZERO PUSH2 0x2AB7 JUMPI DUP4 MLOAD PUSH1 0x1 PUSH1 0x1 PUSH1 0xA0 SHL SUB AND DUP4 MSTORE SWAP3 DUP5 ADD SWAP3 SWAP2 DUP5 ADD SWAP2 PUSH1 0x1 ADD PUSH2 0x2D3E JUMP JUMPDEST PUSH1 0x0 DUP1 DUP4 PUSH1 0x1F DUP5 ADD SLT PUSH2 0x2D75 JUMPI PUSH1 0x0 DUP1 REVERT JUMPDEST POP DUP2 CALLDATALOAD PUSH8 0xFFFFFFFFFFFFFFFF DUP2 GT ISZERO PUSH2 0x2D8D JUMPI PUSH1 0x0 DUP1 REVERT JUMPDEST PUSH1 0x20 DUP4 ADD SWAP2 POP DUP4 PUSH1 0x20 DUP3 DUP6 ADD ADD GT ISZERO PUSH2 0x2DA5 JUMPI PUSH1 0x0 DUP1 REVERT JUMPDEST SWAP3 POP SWAP3 SWAP1 POP JUMP JUMPDEST DUP1 CALLDATALOAD PUSH1 0xFF DUP2 AND DUP2 EQ PUSH2 0x2A58 JUMPI PUSH1 0x0 DUP1 REVERT JUMPDEST PUSH1 0x0 DUP1 PUSH1 0x0 DUP1 PUSH1 0x0 DUP1 PUSH1 0x0 DUP1 PUSH1 0x0 PUSH1 0xC0 DUP11 DUP13 SUB SLT ISZERO PUSH2 0x2DDB JUMPI PUSH1 0x0 DUP1 REVERT JUMPDEST PUSH2 0x2DE4 DUP11 PUSH2 0x2A41 JUMP JUMPDEST SWAP9 POP PUSH1 0x20 DUP11 ADD CALLDATALOAD PUSH1 0x5 DUP2 LT PUSH2 0x2DF8 JUMPI PUSH1 0x0 DUP1 REVERT JUMPDEST SWAP8 POP PUSH1 0x40 DUP11 ADD CALLDATALOAD PUSH8 0xFFFFFFFFFFFFFFFF DUP1 DUP3 GT ISZERO PUSH2 0x2E15 JUMPI PUSH1 0x0 DUP1 REVERT JUMPDEST PUSH2 0x2E21 DUP14 DUP4 DUP15 ADD PUSH2 0x2D63 JUMP JUMPDEST SWAP1 SWAP10 POP SWAP8 POP PUSH1 0x60 DUP13 ADD CALLDATALOAD SWAP2 POP DUP1 DUP3 GT ISZERO PUSH2 0x2E3A JUMPI PUSH1 0x0 DUP1 REVERT JUMPDEST PUSH2 0x2E46 DUP14 DUP4 DUP15 ADD PUSH2 0x2D63 JUMP JUMPDEST SWAP1 SWAP8 POP SWAP6 POP PUSH1 0x80 DUP13 ADD CALLDATALOAD SWAP2 POP DUP1 DUP3 GT ISZERO PUSH2 0x2E5F JUMPI PUSH1 0x0 DUP1 REVERT JUMPDEST POP PUSH2 0x2E6C DUP13 DUP3 DUP14 ADD PUSH2 0x2D63 JUMP JUMPDEST SWAP1 SWAP5 POP SWAP3 POP PUSH2 0x2E7F SWAP1 POP PUSH1 0xA0 DUP12 ADD PUSH2 0x2DAC JUMP JUMPDEST SWAP1 POP SWAP3 SWAP6 SWAP9 POP SWAP3 SWAP6 SWAP9 POP SWAP3 SWAP6 SWAP9 JUMP JUMPDEST PUSH1 0x20 DUP1 DUP3 MSTORE PUSH1 0xF SWAP1 DUP3 ADD MSTORE PUSH15 0x2830B1BA1D103737BA1037BBB732B9 PUSH1 0x89 SHL PUSH1 0x40 DUP3 ADD MSTORE PUSH1 0x60 ADD SWAP1 JUMP JUMPDEST PUSH1 0x20 DUP1 DUP3 MSTORE PUSH1 0x14 SWAP1 DUP3 ADD MSTORE PUSH20 0x141858DD0E88191BD95CC81B9BDD08195E1A5CDD PUSH1 0x62 SHL PUSH1 0x40 DUP3 ADD MSTORE PUSH1 0x60 ADD SWAP1 JUMP JUMPDEST PUSH1 0x20 DUP1 DUP3 MSTORE PUSH1 0x10 SWAP1 DUP3 ADD MSTORE PUSH16 0x506163743A206E6F7420616374697665 PUSH1 0x80 SHL PUSH1 0x40 DUP3 ADD MSTORE PUSH1 0x60 ADD SWAP1 JUMP JUMPDEST PUSH4 0x4E487B71 PUSH1 0xE0 SHL PUSH1 0x0 MSTORE PUSH1 0x11 PUSH1 0x4 MSTORE PUSH1 0x24 PUSH1 0x0 REVERT JUMPDEST PUSH1 0x0 PUSH1 0xFF DUP3 AND PUSH1 0xFF DUP2 SUB PUSH2 0x2F3B JUMPI PUSH2 0x2F3B PUSH2 0x2F0F JUMP JUMPDEST PUSH1 0x1 ADD SWAP3 SWAP2 POP POP JUMP JUMPDEST DUP1 DUP3 ADD DUP1 DUP3 GT ISZERO PUSH2 0x10E1 JUMPI PUSH2 0x10E1 PUSH2 0x2F0F JUMP JUMPDEST PUSH1 0x1 DUP2 DUP2 SHR SWAP1 DUP3 AND DUP1 PUSH2 0x2F6B JUMPI PUSH1 0x7F DUP3 AND SWAP2 POP JUMPDEST PUSH1 0x20 DUP3 LT DUP2 SUB PUSH2 0x2F8B JUMPI PUSH4 0x4E487B71 PUSH1 0xE0 SHL PUSH1 0x0 MSTORE PUSH1 0x22 PUSH1 0x4 MSTORE PUSH1 0x24 PUSH1 0x0 REVERT JUMPDEST POP SWAP2 SWAP1 POP JUMP JUMPDEST PUSH1 0x0 PUSH1 0x20 DUP3 DUP5 SUB SLT ISZERO PUSH2 0x2FA3 JUMPI PUSH1 0x0 DUP1 REVERT JUMPDEST POP MLOAD SWAP2 SWAP1 POP JUMP JUMPDEST DUP2 DUP2 SUB DUP2 DUP2 GT ISZERO PUSH2 0x10E1 JUMPI PUSH2 0x10E1 PUSH2 0x2F0F JUMP JUMPDEST PUSH4 0x4E487B71 PUSH1 0xE0 SHL PUSH1 0x0 MSTORE PUSH1 0x32 PUSH1 0x4 MSTORE PUSH1 0x24 PUSH1 0x0 REVERT JUMPDEST PUSH1 0x0 PUSH1 0x1 DUP3 ADD PUSH2 0x2FE5 JUMPI PUSH2 0x2FE5 PUSH2 0x2F0F JUMP JUMPDEST POP PUSH1 0x1 ADD SWAP1 JUMP JUMPDEST PUSH4 0x4E487B71 PUSH1 0xE0 SHL PUSH1 0x0 MSTORE PUSH1 0x41 PUSH1 0x4 MSTORE PUSH1 0x24 PUSH1 0x0 REVERT JUMPDEST PUSH1 0x1F DUP3 GT ISZERO PUSH2 0x24F6 JUMPI PUSH1 0x0 DUP2 DUP2 MSTORE PUSH1 0x20 DUP2 KECCAK256 PUSH1 0x1F DUP6 ADD PUSH1 0x5 SHR DUP2 ADD PUSH1 0x20 DUP7 LT ISZERO PUSH2 0x3029 JUMPI POP DUP1 JUMPDEST PUSH1 0x1F DUP6 ADD PUSH1 0x5 SHR DUP3 ADD SWAP2 POP JUMPDEST DUP2 DUP2 LT ISZERO PUSH2 0x3048 JUMPI DUP3 DUP2 SSTORE PUSH1 0x1 ADD PUSH2 0x3035 JUMP JUMPDEST POP POP POP POP POP POP JUMP JUMPDEST DUP2 MLOAD PUSH8 0xFFFFFFFFFFFFFFFF DUP2 GT ISZERO PUSH2 0x306A JUMPI PUSH2 0x306A PUSH2 0x2FEC JUMP JUMPDEST PUSH2 0x307E DUP2 PUSH2 0x3078 DUP5 SLOAD PUSH2 0x2F57 JUMP JUMPDEST DUP5 PUSH2 0x3002 JUMP JUMPDEST PUSH1 0x20 DUP1 PUSH1 0x1F DUP4 GT PUSH1 0x1 DUP2 EQ PUSH2 0x30B3 JUMPI PUSH1 0x0 DUP5 ISZERO PUSH2 0x309B JUMPI POP DUP6 DUP4 ADD MLOAD JUMPDEST PUSH1 0x0 NOT PUSH1 0x3 DUP7 SWAP1 SHL SHR NOT AND PUSH1 0x1 DUP6 SWAP1 SHL OR DUP6 SSTORE PUSH2 0x3048 JUMP JUMPDEST PUSH1 0x0 DUP6 DUP2 MSTORE PUSH1 0x20 DUP2 KECCAK256 PUSH1 0x1F NOT DUP7 AND SWAP2 JUMPDEST DUP3 DUP2 LT ISZERO PUSH2 0x30E2 JUMPI DUP9 DUP7 ADD MLOAD DUP3 SSTORE SWAP5 DUP5 ADD SWAP5 PUSH1 0x1 SWAP1 SWAP2 ADD SWAP1 DUP5 ADD PUSH2 0x30C3 JUMP JUMPDEST POP DUP6 DUP3 LT ISZERO PUSH2 0x3100 JUMPI DUP8 DUP6 ADD MLOAD PUSH1 0x0 NOT PUSH1 0x3 DUP9 SWAP1 SHL PUSH1 0xF8 AND SHR NOT AND DUP2 SSTORE JUMPDEST POP POP POP POP POP PUSH1 0x1 SWAP1 DUP2 SHL ADD SWAP1 SSTORE POP JUMP JUMPDEST PUSH1 0x1 PUSH1 0x1 PUSH1 0xA0 SHL SUB DUP4 AND DUP2 MSTORE PUSH1 0x40 DUP2 ADD PUSH2 0x2A78 PUSH1 0x20 DUP4 ADD DUP5 PUSH2 0x2AD9 JUMP INVALID SWAP12 PUSH24 0x9B17422D0DF92223018B32B4D1FA46E071723D6817E2486D STOP EXTCODESIZE 0xEC 0xC5 PUSH0 STOP LOG2 PUSH5 0x6970667358 0x22 SLT KECCAK256 0xD0 JUMP EQ 0xDC PUSH9 0x441C348CC067C7680D NUMBER 0xE0 EXTCODECOPY SELFBALANCE 0xE1 0xC3 PC DUP11 SWAP6 DUP10 0xAE RETURN OR PUSH15 0x427C371864736F6C63430008140033 "},"methodIdentifiers":{"approveRelease(uint256)":"1bd2cea1","assignGuardians(uint256,address[])":"c6213211","calculateCommitmentScore(address)":"f56b561a","cancelPact(uint256)":"a3a86827","commitmentScore(address)":"b7262dda","createPact(address,uint8,bytes,string,string,uint8)":"f4a22bd0","deposit(uint256)":"b6b55f25","depositERC20(uint256,uint256)":"411e17a1","getGuardians(uint256)":"c3dafbf0","getPact(uint256)":"3c7bc6b7","getUserPacts(address)":"35325a01","hasGuardianApproved(uint256,address)":"560df801","pactCount()":"f10fb3da","release(uint256)":"37bdc99b","requestRelease(uint256)":"063d36a4","updateGuardians(uint256,address[])":"a3a6569c"}}}}}